{
  "_format": "hh-sol-artifact-1",
  "contractName": "MediBoomer",
  "sourceName": "contracts/MediBoomer.sol",
  "abi": [
    {
      "inputs": [
        {
          "internalType": "uint256",
          "name": "updateInterval",
          "type": "uint256"
        }
      ],
      "stateMutability": "nonpayable",
      "type": "constructor"
    },
    {
      "anonymous": false,
      "inputs": [
        {
          "indexed": true,
          "internalType": "address",
          "name": "previousOwner",
          "type": "address"
        },
        {
          "indexed": true,
          "internalType": "address",
          "name": "newOwner",
          "type": "address"
        }
      ],
      "name": "OwnershipTransferred",
      "type": "event"
    },
    {
      "anonymous": false,
      "inputs": [
        {
          "indexed": true,
          "internalType": "bytes32",
          "name": "role",
          "type": "bytes32"
        },
        {
          "indexed": true,
          "internalType": "bytes32",
          "name": "previousAdminRole",
          "type": "bytes32"
        },
        {
          "indexed": true,
          "internalType": "bytes32",
          "name": "newAdminRole",
          "type": "bytes32"
        }
      ],
      "name": "RoleAdminChanged",
      "type": "event"
    },
    {
      "anonymous": false,
      "inputs": [
        {
          "indexed": true,
          "internalType": "bytes32",
          "name": "role",
          "type": "bytes32"
        },
        {
          "indexed": true,
          "internalType": "address",
          "name": "account",
          "type": "address"
        },
        {
          "indexed": true,
          "internalType": "address",
          "name": "sender",
          "type": "address"
        }
      ],
      "name": "RoleGranted",
      "type": "event"
    },
    {
      "anonymous": false,
      "inputs": [
        {
          "indexed": true,
          "internalType": "bytes32",
          "name": "role",
          "type": "bytes32"
        },
        {
          "indexed": true,
          "internalType": "address",
          "name": "account",
          "type": "address"
        },
        {
          "indexed": true,
          "internalType": "address",
          "name": "sender",
          "type": "address"
        }
      ],
      "name": "RoleRevoked",
      "type": "event"
    },
    {
      "anonymous": false,
      "inputs": [
        {
          "indexed": true,
          "internalType": "address",
          "name": "userAddress",
          "type": "address"
        }
      ],
      "name": "WamAdded",
      "type": "event"
    },
    {
      "inputs": [],
      "name": "DEFAULT_ADMIN_ROLE",
      "outputs": [
        {
          "internalType": "bytes32",
          "name": "",
          "type": "bytes32"
        }
      ],
      "stateMutability": "view",
      "type": "function"
    },
    {
      "inputs": [],
      "name": "DOCTOR_ROLE",
      "outputs": [
        {
          "internalType": "bytes32",
          "name": "",
          "type": "bytes32"
        }
      ],
      "stateMutability": "view",
      "type": "function"
    },
    {
      "inputs": [],
      "name": "PATIENT_ROLE",
      "outputs": [
        {
          "internalType": "bytes32",
          "name": "",
          "type": "bytes32"
        }
      ],
      "stateMutability": "view",
      "type": "function"
    },
    {
      "inputs": [],
      "name": "PHARMACIST_ROLE",
      "outputs": [
        {
          "internalType": "bytes32",
          "name": "",
          "type": "bytes32"
        }
      ],
      "stateMutability": "view",
      "type": "function"
    },
    {
      "inputs": [
        {
          "internalType": "string",
          "name": "_time",
          "type": "string"
        }
      ],
      "name": "addIntakeTime",
      "outputs": [],
      "stateMutability": "nonpayable",
      "type": "function"
    },
    {
      "inputs": [
        {
          "internalType": "address",
          "name": "_patient",
          "type": "address"
        },
        {
          "components": [
            {
              "internalType": "uint256",
              "name": "id",
              "type": "uint256"
            },
            {
              "internalType": "uint256",
              "name": "medicineId",
              "type": "uint256"
            },
            {
              "internalType": "string",
              "name": "dose",
              "type": "string"
            },
            {
              "internalType": "bool",
              "name": "isDelivered",
              "type": "bool"
            },
            {
              "internalType": "uint256",
              "name": "timeDelivered",
              "type": "uint256"
            },
            {
              "internalType": "uint8",
              "name": "duration",
              "type": "uint8"
            },
            {
              "components": [
                {
                  "internalType": "uint256",
                  "name": "id",
                  "type": "uint256"
                },
                {
                  "internalType": "string",
                  "name": "time",
                  "type": "string"
                }
              ],
              "internalType": "struct MediBoomer.IntakeTime[]",
              "name": "intakeTimeList",
              "type": "tuple[]"
            }
          ],
          "internalType": "struct MediBoomer.Prescription[]",
          "name": "_prescriptionList",
          "type": "tuple[]"
        }
      ],
      "name": "addMedicalRecipe",
      "outputs": [],
      "stateMutability": "nonpayable",
      "type": "function"
    },
    {
      "inputs": [
        {
          "internalType": "string",
          "name": "_name",
          "type": "string"
        },
        {
          "internalType": "uint8",
          "name": "_wamId",
          "type": "uint8"
        }
      ],
      "name": "addMedicine",
      "outputs": [],
      "stateMutability": "nonpayable",
      "type": "function"
    },
    {
      "inputs": [
        {
          "internalType": "string",
          "name": "_id",
          "type": "string"
        },
        {
          "internalType": "string",
          "name": "_name",
          "type": "string"
        },
        {
          "internalType": "string",
          "name": "_email",
          "type": "string"
        },
        {
          "internalType": "address",
          "name": "_contractAddress",
          "type": "address"
        },
        {
          "internalType": "enum MediBoomer.UserRole",
          "name": "_userRole",
          "type": "uint8"
        }
      ],
      "name": "addUser",
      "outputs": [],
      "stateMutability": "nonpayable",
      "type": "function"
    },
    {
      "inputs": [
        {
          "internalType": "string",
          "name": "_name",
          "type": "string"
        }
      ],
      "name": "addWaysAdministeringMedicines",
      "outputs": [],
      "stateMutability": "nonpayable",
      "type": "function"
    },
    {
      "inputs": [
        {
          "internalType": "bytes",
          "name": "checkData",
          "type": "bytes"
        }
      ],
      "name": "checkUpkeep",
      "outputs": [
        {
          "internalType": "bool",
          "name": "upkeepNeeded",
          "type": "bool"
        },
        {
          "internalType": "bytes",
          "name": "performData",
          "type": "bytes"
        }
      ],
      "stateMutability": "view",
      "type": "function"
    },
    {
      "inputs": [],
      "name": "counter",
      "outputs": [
        {
          "internalType": "uint256",
          "name": "",
          "type": "uint256"
        }
      ],
      "stateMutability": "view",
      "type": "function"
    },
    {
      "inputs": [],
      "name": "getIntakeTimeList",
      "outputs": [
        {
          "components": [
            {
              "internalType": "uint256",
              "name": "id",
              "type": "uint256"
            },
            {
              "internalType": "string",
              "name": "time",
              "type": "string"
            }
          ],
          "internalType": "struct MediBoomer.IntakeTime[]",
          "name": "",
          "type": "tuple[]"
        }
      ],
      "stateMutability": "view",
      "type": "function"
    },
    {
      "inputs": [
        {
          "internalType": "address",
          "name": "_address",
          "type": "address"
        },
        {
          "internalType": "uint256",
          "name": "_medicalRecipeId",
          "type": "uint256"
        }
      ],
      "name": "getMedicalRecipe",
      "outputs": [
        {
          "components": [
            {
              "internalType": "uint256",
              "name": "id",
              "type": "uint256"
            },
            {
              "internalType": "address",
              "name": "patient",
              "type": "address"
            },
            {
              "internalType": "uint256[]",
              "name": "prescriptions",
              "type": "uint256[]"
            },
            {
              "internalType": "enum MediBoomer.MedicalRecipeStatus",
              "name": "status",
              "type": "uint8"
            }
          ],
          "internalType": "struct MediBoomer.MedicalRecipe",
          "name": "",
          "type": "tuple"
        }
      ],
      "stateMutability": "view",
      "type": "function"
    },
    {
      "inputs": [],
      "name": "getMedicineList",
      "outputs": [
        {
          "components": [
            {
              "internalType": "uint256",
              "name": "id",
              "type": "uint256"
            },
            {
              "internalType": "string",
              "name": "name",
              "type": "string"
            },
            {
              "internalType": "uint256",
              "name": "wamId",
              "type": "uint256"
            }
          ],
          "internalType": "struct MediBoomer.Medicine[]",
          "name": "",
          "type": "tuple[]"
        }
      ],
      "stateMutability": "view",
      "type": "function"
    },
    {
      "inputs": [],
      "name": "getPatientList",
      "outputs": [
        {
          "components": [
            {
              "internalType": "string",
              "name": "id",
              "type": "string"
            },
            {
              "internalType": "string",
              "name": "name",
              "type": "string"
            },
            {
              "internalType": "string",
              "name": "email",
              "type": "string"
            },
            {
              "internalType": "address",
              "name": "contractAddress",
              "type": "address"
            },
            {
              "internalType": "enum MediBoomer.UserRole",
              "name": "userRole",
              "type": "uint8"
            },
            {
              "internalType": "bool",
              "name": "isExists",
              "type": "bool"
            }
          ],
          "internalType": "struct MediBoomer.User[]",
          "name": "",
          "type": "tuple[]"
        }
      ],
      "stateMutability": "view",
      "type": "function"
    },
    {
      "inputs": [
        {
          "internalType": "address",
          "name": "_address",
          "type": "address"
        }
      ],
      "name": "getPatientMedicalRecipeList",
      "outputs": [
        {
          "components": [
            {
              "internalType": "uint256",
              "name": "id",
              "type": "uint256"
            },
            {
              "internalType": "address",
              "name": "patient",
              "type": "address"
            },
            {
              "internalType": "uint256[]",
              "name": "prescriptions",
              "type": "uint256[]"
            },
            {
              "internalType": "enum MediBoomer.MedicalRecipeStatus",
              "name": "status",
              "type": "uint8"
            }
          ],
          "internalType": "struct MediBoomer.MedicalRecipe[]",
          "name": "",
          "type": "tuple[]"
        }
      ],
      "stateMutability": "view",
      "type": "function"
    },
    {
      "inputs": [
        {
          "internalType": "bytes32",
          "name": "role",
          "type": "bytes32"
        }
      ],
      "name": "getRoleAdmin",
      "outputs": [
        {
          "internalType": "bytes32",
          "name": "",
          "type": "bytes32"
        }
      ],
      "stateMutability": "view",
      "type": "function"
    },
    {
      "inputs": [
        {
          "internalType": "address",
          "name": "userAddress",
          "type": "address"
        }
      ],
      "name": "getUserInfo",
      "outputs": [
        {
          "components": [
            {
              "internalType": "string",
              "name": "id",
              "type": "string"
            },
            {
              "internalType": "string",
              "name": "name",
              "type": "string"
            },
            {
              "internalType": "string",
              "name": "email",
              "type": "string"
            },
            {
              "internalType": "address",
              "name": "contractAddress",
              "type": "address"
            },
            {
              "internalType": "enum MediBoomer.UserRole",
              "name": "userRole",
              "type": "uint8"
            },
            {
              "internalType": "bool",
              "name": "isExists",
              "type": "bool"
            }
          ],
          "internalType": "struct MediBoomer.User",
          "name": "",
          "type": "tuple"
        }
      ],
      "stateMutability": "view",
      "type": "function"
    },
    {
      "inputs": [],
      "name": "getWamList",
      "outputs": [
        {
          "components": [
            {
              "internalType": "uint256",
              "name": "id",
              "type": "uint256"
            },
            {
              "internalType": "string",
              "name": "name",
              "type": "string"
            }
          ],
          "internalType": "struct MediBoomer.WaysAdministeringMedicines[]",
          "name": "",
          "type": "tuple[]"
        }
      ],
      "stateMutability": "view",
      "type": "function"
    },
    {
      "inputs": [
        {
          "internalType": "bytes32",
          "name": "role",
          "type": "bytes32"
        },
        {
          "internalType": "address",
          "name": "account",
          "type": "address"
        }
      ],
      "name": "grantRole",
      "outputs": [],
      "stateMutability": "nonpayable",
      "type": "function"
    },
    {
      "inputs": [
        {
          "internalType": "bytes32",
          "name": "role",
          "type": "bytes32"
        },
        {
          "internalType": "address",
          "name": "account",
          "type": "address"
        }
      ],
      "name": "hasRole",
      "outputs": [
        {
          "internalType": "bool",
          "name": "",
          "type": "bool"
        }
      ],
      "stateMutability": "view",
      "type": "function"
    },
    {
      "inputs": [],
      "name": "interval",
      "outputs": [
        {
          "internalType": "uint256",
          "name": "",
          "type": "uint256"
        }
      ],
      "stateMutability": "view",
      "type": "function"
    },
    {
      "inputs": [],
      "name": "lastTimeStamp",
      "outputs": [
        {
          "internalType": "uint256",
          "name": "",
          "type": "uint256"
        }
      ],
      "stateMutability": "view",
      "type": "function"
    },
    {
      "inputs": [],
      "name": "owner",
      "outputs": [
        {
          "internalType": "address",
          "name": "",
          "type": "address"
        }
      ],
      "stateMutability": "view",
      "type": "function"
    },
    {
      "inputs": [
        {
          "internalType": "bytes",
          "name": "",
          "type": "bytes"
        }
      ],
      "name": "performUpkeep",
      "outputs": [],
      "stateMutability": "nonpayable",
      "type": "function"
    },
    {
      "inputs": [],
      "name": "renounceOwnership",
      "outputs": [],
      "stateMutability": "nonpayable",
      "type": "function"
    },
    {
      "inputs": [
        {
          "internalType": "bytes32",
          "name": "role",
          "type": "bytes32"
        },
        {
          "internalType": "address",
          "name": "account",
          "type": "address"
        }
      ],
      "name": "renounceRole",
      "outputs": [],
      "stateMutability": "nonpayable",
      "type": "function"
    },
    {
      "inputs": [
        {
          "internalType": "bytes32",
          "name": "role",
          "type": "bytes32"
        },
        {
          "internalType": "address",
          "name": "account",
          "type": "address"
        }
      ],
      "name": "revokeRole",
      "outputs": [],
      "stateMutability": "nonpayable",
      "type": "function"
    },
    {
      "inputs": [
        {
          "internalType": "bytes4",
          "name": "interfaceId",
          "type": "bytes4"
        }
      ],
      "name": "supportsInterface",
      "outputs": [
        {
          "internalType": "bool",
          "name": "",
          "type": "bool"
        }
      ],
      "stateMutability": "view",
      "type": "function"
    },
    {
      "inputs": [
        {
          "internalType": "address",
          "name": "newOwner",
          "type": "address"
        }
      ],
      "name": "transferOwnership",
      "outputs": [],
      "stateMutability": "nonpayable",
      "type": "function"
    }
  ],
  "bytecode": "0x60a06040523480156200001157600080fd5b50604051620048ea380380620048ea833981810160405281019062000037919062000308565b620000576200004b6200008a60201b60201c565b6200009260201b60201c565b6200006c6000801b336200015660201b60201c565b8060808181525050426008819055506000600781905550506200033a565b600033905090565b60008060009054906101000a900473ffffffffffffffffffffffffffffffffffffffff169050816000806101000a81548173ffffffffffffffffffffffffffffffffffffffff021916908373ffffffffffffffffffffffffffffffffffffffff1602179055508173ffffffffffffffffffffffffffffffffffffffff168173ffffffffffffffffffffffffffffffffffffffff167f8be0079c531659141344cd1fd0a4f28419497f9722a3daafe3b4186f6b6457e060405160405180910390a35050565b6200016882826200016c60201b60201c565b5050565b6200017e82826200025d60201b60201c565b6200025957600180600084815260200190815260200160002060000160008373ffffffffffffffffffffffffffffffffffffffff1673ffffffffffffffffffffffffffffffffffffffff16815260200190815260200160002060006101000a81548160ff021916908315150217905550620001fe6200008a60201b60201c565b73ffffffffffffffffffffffffffffffffffffffff168173ffffffffffffffffffffffffffffffffffffffff16837f2f8788117e7eff1d82e926ec794901d17c78024a50270940304540a733656f0d60405160405180910390a45b5050565b60006001600084815260200190815260200160002060000160008373ffffffffffffffffffffffffffffffffffffffff1673ffffffffffffffffffffffffffffffffffffffff16815260200190815260200160002060009054906101000a900460ff16905092915050565b600080fd5b6000819050919050565b620002e281620002cd565b8114620002ee57600080fd5b50565b6000815190506200030281620002d7565b92915050565b600060208284031215620003215762000320620002c8565b5b60006200033184828501620002f1565b91505092915050565b60805161458d6200035d600039600081816115a401526119ef015261458d6000f3fe608060405234801561001057600080fd5b50600436106101da5760003560e01c8063715018a611610104578063a3458072116100a2578063d547741f11610071578063d547741f14610548578063f2fde38b14610564578063f56bb4fa14610580578063fec331f21461059c576101da565b8063a3458072146104d0578063ac5cb97d146104ee578063ba115db01461050c578063c532d9fa1461052a576101da565b80638da5cb5b116100de5780638da5cb5b1461044657806391d1485414610464578063947a36fb14610494578063a217fddf146104b2576101da565b8063715018a6146103ee578063719f3520146103f857806376b0d29014610416576101da565b806336568abe1161017c57806361bc221a1161014b57806361bc221a146103535780636386c1c714610371578063691ddadc146103a15780636e04ff0d146103bd576101da565b806336568abe146102df5780633f3b3b27146102fb5780634585e33b14610319578063503b135414610335576101da565b806323dc65e3116101b857806323dc65e314610247578063248a9ca3146102775780632535f6a5146102a75780632f2ff15d146102c3576101da565b806301ffc9a7146101df5780630357b31c1461020f5780631300914c1461022b575b600080fd5b6101f960048036038101906101f491906126b8565b6105ba565b6040516102069190612700565b60405180910390f35b61022960048036038101906102249190612861565b610634565b005b6102456004803603810190610240919061292d565b6106f5565b005b610261600480360381019061025c9190612a32565b610aa7565b60405161026e9190612c19565b60405180910390f35b610291600480360381019061028c9190612c71565b610b2f565b60405161029e9190612cad565b60405180910390f35b6102c160048036038101906102bc9190612861565b610b4f565b005b6102dd60048036038101906102d89190612cc8565b610bcd565b005b6102f960048036038101906102f49190612cc8565b610bee565b005b610303610c71565b6040516103109190612d17565b60405180910390f35b610333600480360381019061032e9190612d92565b610c77565b005b61033d610cf5565b60405161034a919061300e565b60405180910390f35b61035b611033565b6040516103689190612d17565b60405180910390f35b61038b60048036038101906103869190613030565b611039565b60405161039891906130f4565b60405180910390f35b6103bb60048036038101906103b6919061316c565b6112f4565b005b6103d760048036038101906103d2919061326d565b61158e565b6040516103e592919061330b565b60405180910390f35b6103f66115ea565b005b6104006115fe565b60405161040d919061343a565b60405180910390f35b610430600480360381019061042b9190613030565b6116f9565b60405161043d9190613581565b60405180910390f35b61044e611959565b60405161045b91906135b2565b60405180910390f35b61047e60048036038101906104799190612cc8565b611982565b60405161048b9190612700565b60405180910390f35b61049c6119ed565b6040516104a99190612d17565b60405180910390f35b6104ba611a11565b6040516104c79190612cad565b60405180910390f35b6104d8611a18565b6040516104e591906136df565b60405180910390f35b6104f6611b1d565b6040516105039190612cad565b60405180910390f35b610514611b41565b6040516105219190613800565b60405180910390f35b610532611c3c565b60405161053f9190612cad565b60405180910390f35b610562600480360381019061055d9190612cc8565b611c60565b005b61057e60048036038101906105799190613030565b611c81565b005b61059a6004803603810190610595919061385b565b611d04565b005b6105a4611d96565b6040516105b19190612cad565b60405180910390f35b60007f7965db0b000000000000000000000000000000000000000000000000000000007bffffffffffffffffffffffffffffffffffffffffffffffffffffffff1916827bffffffffffffffffffffffffffffffffffffffffffffffffffffffff1916148061062d575061062c82611dba565b5b9050919050565b60006106406002611e24565b9050600960405180604001604052808381526020018481525090806001815401808255809150506001900390600052602060002090600202016000909190919091506000820151816000015560208201518160010190816106a19190613ac3565b5050506106ae6002611e32565b3373ffffffffffffffffffffffffffffffffffffffff167fe103f0c9b4a3439dca4e673a3edca83247b0bec1284eba816801202b2e76424960405160405180910390a25050565b601060008373ffffffffffffffffffffffffffffffffffffffff1673ffffffffffffffffffffffffffffffffffffffff16815260200190815260200160002060030160159054906101000a900460ff1615610785576040517f08c379a000000000000000000000000000000000000000000000000000000000815260040161077c90613bf2565b60405180910390fd5b6040518060c001604052808681526020018581526020018481526020018373ffffffffffffffffffffffffffffffffffffffff1681526020018260028111156107d1576107d0612b3f565b5b815260200160011515815250601060008473ffffffffffffffffffffffffffffffffffffffff1673ffffffffffffffffffffffffffffffffffffffff16815260200190815260200160002060008201518160000190816108319190613ac3565b5060208201518160010190816108479190613ac3565b50604082015181600201908161085d9190613ac3565b5060608201518160030160006101000a81548173ffffffffffffffffffffffffffffffffffffffff021916908373ffffffffffffffffffffffffffffffffffffffff16021790555060808201518160030160146101000a81548160ff021916908360028111156108d0576108cf612b3f565b5b021790555060a08201518160030160156101000a81548160ff02191690831515021790555090505060028081111561090b5761090a612b3f565b5b81600281111561091e5761091d612b3f565b5b03610aa057600c601060008473ffffffffffffffffffffffffffffffffffffffff1673ffffffffffffffffffffffffffffffffffffffff1681526020019081526020016000209080600181540180825580915050600190039060005260206000209060040201600090919091909150600082018160000190816109a19190613c28565b50600182018160010190816109b69190613c28565b50600282018160020190816109cb9190613c28565b506003820160009054906101000a900473ffffffffffffffffffffffffffffffffffffffff168160030160006101000a81548173ffffffffffffffffffffffffffffffffffffffff021916908373ffffffffffffffffffffffffffffffffffffffff1602179055506003820160149054906101000a900460ff168160030160146101000a81548160ff02191690836002811115610a6b57610a6a612b3f565b5b02179055506003820160159054906101000a900460ff168160030160156101000a81548160ff02191690831515021790555050505b5050505050565b610aaf61259c565b6000610aba846116f9565b90506000805b8251811015610b095784838281518110610add57610adc613d10565b5b60200260200101516000015103610af657809150610b09565b8080610b0190613d6e565b915050610ac0565b50818181518110610b1d57610b1c613d10565b5b60200260200101519250505092915050565b600060016000838152602001908152602001600020600101549050919050565b6000610b5b6004611e24565b9050600b6040518060400160405280838152602001848152509080600181540180825580915050600190039060005260206000209060020201600090919091909150600082015181600001556020820151816001019081610bbc9190613ac3565b505050610bc96004611e32565b5050565b610bd682610b2f565b610bdf81611e48565b610be98383611e5c565b505050565b610bf6611f3c565b73ffffffffffffffffffffffffffffffffffffffff168173ffffffffffffffffffffffffffffffffffffffff1614610c63576040517f08c379a0000000000000000000000000000000000000000000000000000000008152600401610c5a90613e28565b60405180910390fd5b610c6d8282611f44565b5050565b60085481565b6000610c916040518060200160405280600081525061158e565b50905080610cd4576040517f08c379a0000000000000000000000000000000000000000000000000000000008152600401610ccb90613e94565b60405180910390fd5b426008819055506001600754610cea9190613eb4565b600781905550505050565b6060610d217f0af1dac7dea2fd7f7738119cec7df099dfad49aa9d2e7d17ba6b60f63ae7411f33611982565b80610d355750610d346000801b33611982565b5b610d74576040517f08c379a0000000000000000000000000000000000000000000000000000000008152600401610d6b90613f34565b60405180910390fd5b600c805480602002602001604051908101604052809291908181526020016000905b8282101561102a57838290600052602060002090600402016040518060c0016040529081600082018054610dc9906138e6565b80601f0160208091040260200160405190810160405280929190818152602001828054610df5906138e6565b8015610e425780601f10610e1757610100808354040283529160200191610e42565b820191906000526020600020905b815481529060010190602001808311610e2557829003601f168201915b50505050508152602001600182018054610e5b906138e6565b80601f0160208091040260200160405190810160405280929190818152602001828054610e87906138e6565b8015610ed45780601f10610ea957610100808354040283529160200191610ed4565b820191906000526020600020905b815481529060010190602001808311610eb757829003601f168201915b50505050508152602001600282018054610eed906138e6565b80601f0160208091040260200160405190810160405280929190818152602001828054610f19906138e6565b8015610f665780601f10610f3b57610100808354040283529160200191610f66565b820191906000526020600020905b815481529060010190602001808311610f4957829003601f168201915b505050505081526020016003820160009054906101000a900473ffffffffffffffffffffffffffffffffffffffff1673ffffffffffffffffffffffffffffffffffffffff1673ffffffffffffffffffffffffffffffffffffffff1681526020016003820160149054906101000a900460ff166002811115610fea57610fe9612b3f565b5b6002811115610ffc57610ffb612b3f565b5b81526020016003820160159054906101000a900460ff16151515158152505081526020019060010190610d96565b50505050905090565b60075481565b6110416125ec565b601060008373ffffffffffffffffffffffffffffffffffffffff1673ffffffffffffffffffffffffffffffffffffffff1681526020019081526020016000206040518060c001604052908160008201805461109b906138e6565b80601f01602080910402602001604051908101604052809291908181526020018280546110c7906138e6565b80156111145780601f106110e957610100808354040283529160200191611114565b820191906000526020600020905b8154815290600101906020018083116110f757829003601f168201915b5050505050815260200160018201805461112d906138e6565b80601f0160208091040260200160405190810160405280929190818152602001828054611159906138e6565b80156111a65780601f1061117b576101008083540402835291602001916111a6565b820191906000526020600020905b81548152906001019060200180831161118957829003601f168201915b505050505081526020016002820180546111bf906138e6565b80601f01602080910402602001604051908101604052809291908181526020018280546111eb906138e6565b80156112385780601f1061120d57610100808354040283529160200191611238565b820191906000526020600020905b81548152906001019060200180831161121b57829003601f168201915b505050505081526020016003820160009054906101000a900473ffffffffffffffffffffffffffffffffffffffff1673ffffffffffffffffffffffffffffffffffffffff1673ffffffffffffffffffffffffffffffffffffffff1681526020016003820160149054906101000a900460ff1660028111156112bc576112bb612b3f565b5b60028111156112ce576112cd612b3f565b5b81526020016003820160159054906101000a900460ff1615151515815250509050919050565b60006113006003611e24565b90506000600e60008381526020019081526020016000209050818160000181905550848160010160006101000a81548173ffffffffffffffffffffffffffffffffffffffff021916908373ffffffffffffffffffffffffffffffffffffffff16021790555060008160030160006101000a81548160ff0219169083600281111561138d5761138c612b3f565b5b021790555060005b848490508110156115165760006113ac6006611e24565b90506114cd818787858181106113c5576113c4613d10565b5b90506020028101906113d79190613f63565b602001358888868181106113ee576113ed613d10565b5b90506020028101906114009190613f63565b806040019061140f9190613f8b565b8080601f016020809104026020016040519081016040528093929190818152602001838380828437600081840152601f19601f8201169050808301925050505050505089898781811061146557611464613d10565b5b90506020028101906114779190613f63565b60a00160208101906114899190613fee565b8a8a8881811061149c5761149b613d10565b5b90506020028101906114ae9190613f63565b8060c001906114bd919061401b565b906114c891906141a7565b612026565b826002018190806001815401808255809150506001900390600052602060002001600090919091909150556115026006611e32565b50808061150e90613d6e565b915050611395565b506115216003611e32565b600d60008673ffffffffffffffffffffffffffffffffffffffff1673ffffffffffffffffffffffffffffffffffffffff1681526020019081526020016000208290806001815401808255809150506001900390600052602060002001600090919091909150555050505050565b60006060600060075460098054905014905060007f0000000000000000000000000000000000000000000000000000000000000000600854426115d191906141bc565b1190508180156115de5750805b93508492505050915091565b6115f261216c565b6115fc60006121ea565b565b60606009805480602002602001604051908101604052809291908181526020016000905b828210156116f057838290600052602060002090600202016040518060400160405290816000820154815260200160018201805461165f906138e6565b80601f016020809104026020016040519081016040528092919081815260200182805461168b906138e6565b80156116d85780601f106116ad576101008083540402835291602001916116d8565b820191906000526020600020905b8154815290600101906020018083116116bb57829003601f168201915b50505050508152505081526020019060010190611622565b50505050905090565b60606000600d60008473ffffffffffffffffffffffffffffffffffffffff1673ffffffffffffffffffffffffffffffffffffffff16815260200190815260200160002080548060200260200160405190810160405280929190818152602001828054801561178657602002820191906000526020600020905b815481526020019060010190808311611772575b505050505090506000815167ffffffffffffffff8111156117aa576117a9612736565b5b6040519080825280602002602001820160405280156117e357816020015b6117d061259c565b8152602001906001900390816117c85790505b50905060005b825181101561194e57600e600084838151811061180957611808613d10565b5b60200260200101518152602001908152602001600020604051806080016040529081600082015481526020016001820160009054906101000a900473ffffffffffffffffffffffffffffffffffffffff1673ffffffffffffffffffffffffffffffffffffffff1673ffffffffffffffffffffffffffffffffffffffff168152602001600282018054806020026020016040519081016040528092919081815260200182805480156118d957602002820191906000526020600020905b8154815260200190600101908083116118c5575b505050505081526020016003820160009054906101000a900460ff16600281111561190757611906612b3f565b5b600281111561191957611918612b3f565b5b815250508282815181106119305761192f613d10565b5b6020026020010181905250808061194690613d6e565b9150506117e9565b508092505050919050565b60008060009054906101000a900473ffffffffffffffffffffffffffffffffffffffff16905090565b60006001600084815260200190815260200160002060000160008373ffffffffffffffffffffffffffffffffffffffff1673ffffffffffffffffffffffffffffffffffffffff16815260200190815260200160002060009054906101000a900460ff16905092915050565b7f000000000000000000000000000000000000000000000000000000000000000081565b6000801b81565b6060600a805480602002602001604051908101604052809291908181526020016000905b82821015611b14578382906000526020600020906003020160405180606001604052908160008201548152602001600182018054611a79906138e6565b80601f0160208091040260200160405190810160405280929190818152602001828054611aa5906138e6565b8015611af25780601f10611ac757610100808354040283529160200191611af2565b820191906000526020600020905b815481529060010190602001808311611ad557829003601f168201915b5050505050815260200160028201548152505081526020019060010190611a3c565b50505050905090565b7f72606200fac42b7dc86b75901d61ecfab2a4a1a6eded478b97a428094891abed81565b6060600b805480602002602001604051908101604052809291908181526020016000905b82821015611c33578382906000526020600020906002020160405180604001604052908160008201548152602001600182018054611ba2906138e6565b80601f0160208091040260200160405190810160405280929190818152602001828054611bce906138e6565b8015611c1b5780601f10611bf057610100808354040283529160200191611c1b565b820191906000526020600020905b815481529060010190602001808311611bfe57829003601f168201915b50505050508152505081526020019060010190611b65565b50505050905090565b7fc2d498fa6734073871a6dde33c56174c52423804118e0d5b66171fad3494de6881565b611c6982610b2f565b611c7281611e48565b611c7c8383611f44565b505050565b611c8961216c565b600073ffffffffffffffffffffffffffffffffffffffff168173ffffffffffffffffffffffffffffffffffffffff1603611cf8576040517f08c379a0000000000000000000000000000000000000000000000000000000008152600401611cef90614262565b60405180910390fd5b611d01816121ea565b50565b6000611d106005611e24565b9050600a60405180606001604052808381526020018581526020018460ff168152509080600181540180825580915050600190039060005260206000209060030201600090919091909150600082015181600001556020820151816001019081611d7a9190613ac3565b50604082015181600201555050611d916005611e32565b505050565b7f0af1dac7dea2fd7f7738119cec7df099dfad49aa9d2e7d17ba6b60f63ae7411f81565b60007f01ffc9a7000000000000000000000000000000000000000000000000000000007bffffffffffffffffffffffffffffffffffffffffffffffffffffffff1916827bffffffffffffffffffffffffffffffffffffffffffffffffffffffff1916149050919050565b600081600001549050919050565b6001816000016000828254019250508190555050565b611e5981611e54611f3c565b6122ae565b50565b611e668282611982565b611f3857600180600084815260200190815260200160002060000160008373ffffffffffffffffffffffffffffffffffffffff1673ffffffffffffffffffffffffffffffffffffffff16815260200190815260200160002060006101000a81548160ff021916908315150217905550611edd611f3c565b73ffffffffffffffffffffffffffffffffffffffff168173ffffffffffffffffffffffffffffffffffffffff16837f2f8788117e7eff1d82e926ec794901d17c78024a50270940304540a733656f0d60405160405180910390a45b5050565b600033905090565b611f4e8282611982565b156120225760006001600084815260200190815260200160002060000160008373ffffffffffffffffffffffffffffffffffffffff1673ffffffffffffffffffffffffffffffffffffffff16815260200190815260200160002060006101000a81548160ff021916908315150217905550611fc7611f3c565b73ffffffffffffffffffffffffffffffffffffffff168173ffffffffffffffffffffffffffffffffffffffff16837ff6391f5c32d9c69d2a47ea670b442974b53935d1edc7fd64eb21e047a839171b60405160405180910390a45b5050565b6000600f60008781526020019081526020016000209050858160000181905550848160010181905550838160020190816120609190613ac3565b5060008160030160006101000a81548160ff021916908315150217905550828160050160006101000a81548160ff021916908360ff16021790555060005b82518160ff16101561216357816006016040518060400160405280858460ff16815181106120cf576120ce613d10565b5b6020026020010151600001518152602001858460ff16815181106120f6576120f5613d10565b5b602002602001015160200151815250908060018154018082558091505060019003906000526020600020906002020160009091909190915060008201518160000155602082015181600101908161214d9190613ac3565b505050808061215b90614282565b91505061209e565b50505050505050565b612174611f3c565b73ffffffffffffffffffffffffffffffffffffffff16612192611959565b73ffffffffffffffffffffffffffffffffffffffff16146121e8576040517f08c379a00000000000000000000000000000000000000000000000000000000081526004016121df906142f7565b60405180910390fd5b565b60008060009054906101000a900473ffffffffffffffffffffffffffffffffffffffff169050816000806101000a81548173ffffffffffffffffffffffffffffffffffffffff021916908373ffffffffffffffffffffffffffffffffffffffff1602179055508173ffffffffffffffffffffffffffffffffffffffff168173ffffffffffffffffffffffffffffffffffffffff167f8be0079c531659141344cd1fd0a4f28419497f9722a3daafe3b4186f6b6457e060405160405180910390a35050565b6122b88282611982565b61232f576122c581612333565b6122d38360001c6020612360565b6040516020016122e49291906143eb565b6040516020818303038152906040526040517f08c379a0000000000000000000000000000000000000000000000000000000008152600401612326919061445e565b60405180910390fd5b5050565b60606123598273ffffffffffffffffffffffffffffffffffffffff16601460ff16612360565b9050919050565b6060600060028360026123739190614480565b61237d9190613eb4565b67ffffffffffffffff81111561239657612395612736565b5b6040519080825280601f01601f1916602001820160405280156123c85781602001600182028036833780820191505090505b5090507f300000000000000000000000000000000000000000000000000000000000000081600081518110612400576123ff613d10565b5b60200101907effffffffffffffffffffffffffffffffffffffffffffffffffffffffffffff1916908160001a9053507f78000000000000000000000000000000000000000000000000000000000000008160018151811061246457612463613d10565b5b60200101907effffffffffffffffffffffffffffffffffffffffffffffffffffffffffffff1916908160001a905350600060018460026124a49190614480565b6124ae9190613eb4565b90505b600181111561254e577f3031323334353637383961626364656600000000000000000000000000000000600f8616601081106124f0576124ef613d10565b5b1a60f81b82828151811061250757612506613d10565b5b60200101907effffffffffffffffffffffffffffffffffffffffffffffffffffffffffffff1916908160001a905350600485901c945080612547906144c2565b90506124b1565b5060008414612592576040517f08c379a000000000000000000000000000000000000000000000000000000000815260040161258990614537565b60405180910390fd5b8091505092915050565b604051806080016040528060008152602001600073ffffffffffffffffffffffffffffffffffffffff16815260200160608152602001600060028111156125e6576125e5612b3f565b5b81525090565b6040518060c00160405280606081526020016060815260200160608152602001600073ffffffffffffffffffffffffffffffffffffffff1681526020016000600281111561263d5761263c612b3f565b5b81526020016000151581525090565b6000604051905090565b600080fd5b600080fd5b60007fffffffff0000000000000000000000000000000000000000000000000000000082169050919050565b61269581612660565b81146126a057600080fd5b50565b6000813590506126b28161268c565b92915050565b6000602082840312156126ce576126cd612656565b5b60006126dc848285016126a3565b91505092915050565b60008115159050919050565b6126fa816126e5565b82525050565b600060208201905061271560008301846126f1565b92915050565b600080fd5b600080fd5b6000601f19601f8301169050919050565b7f4e487b7100000000000000000000000000000000000000000000000000000000600052604160045260246000fd5b61276e82612725565b810181811067ffffffffffffffff8211171561278d5761278c612736565b5b80604052505050565b60006127a061264c565b90506127ac8282612765565b919050565b600067ffffffffffffffff8211156127cc576127cb612736565b5b6127d582612725565b9050602081019050919050565b82818337600083830152505050565b60006128046127ff846127b1565b612796565b9050828152602081018484840111156128205761281f612720565b5b61282b8482856127e2565b509392505050565b600082601f8301126128485761284761271b565b5b81356128588482602086016127f1565b91505092915050565b60006020828403121561287757612876612656565b5b600082013567ffffffffffffffff8111156128955761289461265b565b5b6128a184828501612833565b91505092915050565b600073ffffffffffffffffffffffffffffffffffffffff82169050919050565b60006128d5826128aa565b9050919050565b6128e5816128ca565b81146128f057600080fd5b50565b600081359050612902816128dc565b92915050565b6003811061291557600080fd5b50565b60008135905061292781612908565b92915050565b600080600080600060a0868803121561294957612948612656565b5b600086013567ffffffffffffffff8111156129675761296661265b565b5b61297388828901612833565b955050602086013567ffffffffffffffff8111156129945761299361265b565b5b6129a088828901612833565b945050604086013567ffffffffffffffff8111156129c1576129c061265b565b5b6129cd88828901612833565b93505060606129de888289016128f3565b92505060806129ef88828901612918565b9150509295509295909350565b6000819050919050565b612a0f816129fc565b8114612a1a57600080fd5b50565b600081359050612a2c81612a06565b92915050565b60008060408385031215612a4957612a48612656565b5b6000612a57858286016128f3565b9250506020612a6885828601612a1d565b9150509250929050565b612a7b816129fc565b82525050565b612a8a816128ca565b82525050565b600081519050919050565b600082825260208201905092915050565b6000819050602082019050919050565b6000612ac88383612a72565b60208301905092915050565b6000602082019050919050565b6000612aec82612a90565b612af68185612a9b565b9350612b0183612aac565b8060005b83811015612b32578151612b198882612abc565b9750612b2483612ad4565b925050600181019050612b05565b5085935050505092915050565b7f4e487b7100000000000000000000000000000000000000000000000000000000600052602160045260246000fd5b60038110612b7f57612b7e612b3f565b5b50565b6000819050612b9082612b6e565b919050565b6000612ba082612b82565b9050919050565b612bb081612b95565b82525050565b6000608083016000830151612bce6000860182612a72565b506020830151612be16020860182612a81565b5060408301518482036040860152612bf98282612ae1565b9150506060830151612c0e6060860182612ba7565b508091505092915050565b60006020820190508181036000830152612c338184612bb6565b905092915050565b6000819050919050565b612c4e81612c3b565b8114612c5957600080fd5b50565b600081359050612c6b81612c45565b92915050565b600060208284031215612c8757612c86612656565b5b6000612c9584828501612c5c565b91505092915050565b612ca781612c3b565b82525050565b6000602082019050612cc26000830184612c9e565b92915050565b60008060408385031215612cdf57612cde612656565b5b6000612ced85828601612c5c565b9250506020612cfe858286016128f3565b9150509250929050565b612d11816129fc565b82525050565b6000602082019050612d2c6000830184612d08565b92915050565b600080fd5b600080fd5b60008083601f840112612d5257612d5161271b565b5b8235905067ffffffffffffffff811115612d6f57612d6e612d32565b5b602083019150836001820283011115612d8b57612d8a612d37565b5b9250929050565b60008060208385031215612da957612da8612656565b5b600083013567ffffffffffffffff811115612dc757612dc661265b565b5b612dd385828601612d3c565b92509250509250929050565b600081519050919050565b600082825260208201905092915050565b6000819050602082019050919050565b600081519050919050565b600082825260208201905092915050565b60005b83811015612e45578082015181840152602081019050612e2a565b60008484015250505050565b6000612e5c82612e0b565b612e668185612e16565b9350612e76818560208601612e27565b612e7f81612725565b840191505092915050565b60038110612e9b57612e9a612b3f565b5b50565b6000819050612eac82612e8a565b919050565b6000612ebc82612e9e565b9050919050565b612ecc81612eb1565b82525050565b612edb816126e5565b82525050565b600060c0830160008301518482036000860152612efe8282612e51565b91505060208301518482036020860152612f188282612e51565b91505060408301518482036040860152612f328282612e51565b9150506060830151612f476060860182612a81565b506080830151612f5a6080860182612ec3565b5060a0830151612f6d60a0860182612ed2565b508091505092915050565b6000612f848383612ee1565b905092915050565b6000602082019050919050565b6000612fa482612ddf565b612fae8185612dea565b935083602082028501612fc085612dfb565b8060005b85811015612ffc5784840389528151612fdd8582612f78565b9450612fe883612f8c565b925060208a01995050600181019050612fc4565b50829750879550505050505092915050565b600060208201905081810360008301526130288184612f99565b905092915050565b60006020828403121561304657613045612656565b5b6000613054848285016128f3565b91505092915050565b600060c083016000830151848203600086015261307a8282612e51565b915050602083015184820360208601526130948282612e51565b915050604083015184820360408601526130ae8282612e51565b91505060608301516130c36060860182612a81565b5060808301516130d66080860182612ec3565b5060a08301516130e960a0860182612ed2565b508091505092915050565b6000602082019050818103600083015261310e818461305d565b905092915050565b60008083601f84011261312c5761312b61271b565b5b8235905067ffffffffffffffff81111561314957613148612d32565b5b60208301915083602082028301111561316557613164612d37565b5b9250929050565b60008060006040848603121561318557613184612656565b5b6000613193868287016128f3565b935050602084013567ffffffffffffffff8111156131b4576131b361265b565b5b6131c086828701613116565b92509250509250925092565b600067ffffffffffffffff8211156131e7576131e6612736565b5b6131f082612725565b9050602081019050919050565b600061321061320b846131cc565b612796565b90508281526020810184848401111561322c5761322b612720565b5b6132378482856127e2565b509392505050565b600082601f8301126132545761325361271b565b5b81356132648482602086016131fd565b91505092915050565b60006020828403121561328357613282612656565b5b600082013567ffffffffffffffff8111156132a1576132a061265b565b5b6132ad8482850161323f565b91505092915050565b600081519050919050565b600082825260208201905092915050565b60006132dd826132b6565b6132e781856132c1565b93506132f7818560208601612e27565b61330081612725565b840191505092915050565b600060408201905061332060008301856126f1565b818103602083015261333281846132d2565b90509392505050565b600081519050919050565b600082825260208201905092915050565b6000819050602082019050919050565b600060408301600083015161337f6000860182612a72565b50602083015184820360208601526133978282612e51565b9150508091505092915050565b60006133b08383613367565b905092915050565b6000602082019050919050565b60006133d08261333b565b6133da8185613346565b9350836020820285016133ec85613357565b8060005b85811015613428578484038952815161340985826133a4565b9450613414836133b8565b925060208a019950506001810190506133f0565b50829750879550505050505092915050565b6000602082019050818103600083015261345481846133c5565b905092915050565b600081519050919050565b600082825260208201905092915050565b6000819050602082019050919050565b60006080830160008301516134a06000860182612a72565b5060208301516134b36020860182612a81565b50604083015184820360408601526134cb8282612ae1565b91505060608301516134e06060860182612ba7565b508091505092915050565b60006134f78383613488565b905092915050565b6000602082019050919050565b60006135178261345c565b6135218185613467565b93508360208202850161353385613478565b8060005b8581101561356f578484038952815161355085826134eb565b945061355b836134ff565b925060208a01995050600181019050613537565b50829750879550505050505092915050565b6000602082019050818103600083015261359b818461350c565b905092915050565b6135ac816128ca565b82525050565b60006020820190506135c760008301846135a3565b92915050565b600081519050919050565b600082825260208201905092915050565b6000819050602082019050919050565b60006060830160008301516136116000860182612a72565b50602083015184820360208601526136298282612e51565b915050604083015161363e6040860182612a72565b508091505092915050565b600061365583836135f9565b905092915050565b6000602082019050919050565b6000613675826135cd565b61367f81856135d8565b935083602082028501613691856135e9565b8060005b858110156136cd57848403895281516136ae8582613649565b94506136b98361365d565b925060208a01995050600181019050613695565b50829750879550505050505092915050565b600060208201905081810360008301526136f9818461366a565b905092915050565b600081519050919050565b600082825260208201905092915050565b6000819050602082019050919050565b60006040830160008301516137456000860182612a72565b506020830151848203602086015261375d8282612e51565b9150508091505092915050565b6000613776838361372d565b905092915050565b6000602082019050919050565b600061379682613701565b6137a0818561370c565b9350836020820285016137b28561371d565b8060005b858110156137ee57848403895281516137cf858261376a565b94506137da8361377e565b925060208a019950506001810190506137b6565b50829750879550505050505092915050565b6000602082019050818103600083015261381a818461378b565b905092915050565b600060ff82169050919050565b61383881613822565b811461384357600080fd5b50565b6000813590506138558161382f565b92915050565b6000806040838503121561387257613871612656565b5b600083013567ffffffffffffffff8111156138905761388f61265b565b5b61389c85828601612833565b92505060206138ad85828601613846565b9150509250929050565b7f4e487b7100000000000000000000000000000000000000000000000000000000600052602260045260246000fd5b600060028204905060018216806138fe57607f821691505b602082108103613911576139106138b7565b5b50919050565b60008190508160005260206000209050919050565b60006020601f8301049050919050565b600082821b905092915050565b6000600883026139797fffffffffffffffffffffffffffffffffffffffffffffffffffffffffffffffff8261393c565b613983868361393c565b95508019841693508086168417925050509392505050565b6000819050919050565b60006139c06139bb6139b6846129fc565b61399b565b6129fc565b9050919050565b6000819050919050565b6139da836139a5565b6139ee6139e6826139c7565b848454613949565b825550505050565b600090565b613a036139f6565b613a0e8184846139d1565b505050565b5b81811015613a3257613a276000826139fb565b600181019050613a14565b5050565b601f821115613a7757613a4881613917565b613a518461392c565b81016020851015613a60578190505b613a74613a6c8561392c565b830182613a13565b50505b505050565b600082821c905092915050565b6000613a9a60001984600802613a7c565b1980831691505092915050565b6000613ab38383613a89565b9150826002028217905092915050565b613acc82612e0b565b67ffffffffffffffff811115613ae557613ae4612736565b5b613aef82546138e6565b613afa828285613a36565b600060209050601f831160018114613b2d5760008415613b1b578287015190505b613b258582613aa7565b865550613b8d565b601f198416613b3b86613917565b60005b82811015613b6357848901518255600182019150602085019450602081019050613b3e565b86831015613b805784890151613b7c601f891682613a89565b8355505b6001600288020188555050505b505050505050565b600082825260208201905092915050565b7f5573657220616c72656164792065786973747300000000000000000000000000600082015250565b6000613bdc601383613b95565b9150613be782613ba6565b602082019050919050565b60006020820190508181036000830152613c0b81613bcf565b9050919050565b600081549050613c21816138e6565b9050919050565b818103613c36575050613d0e565b613c3f82613c12565b67ffffffffffffffff811115613c5857613c57612736565b5b613c6282546138e6565b613c6d828285613a36565b6000601f831160018114613c9c5760008415613c8a578287015490505b613c948582613aa7565b865550613d07565b601f198416613caa87613917565b9650613cb586613917565b60005b82811015613cdd57848901548255600182019150600185019450602081019050613cb8565b86831015613cfa5784890154613cf6601f891682613a89565b8355505b6001600288020188555050505b5050505050505b565b7f4e487b7100000000000000000000000000000000000000000000000000000000600052603260045260246000fd5b7f4e487b7100000000000000000000000000000000000000000000000000000000600052601160045260246000fd5b6000613d79826129fc565b91507fffffffffffffffffffffffffffffffffffffffffffffffffffffffffffffffff8203613dab57613daa613d3f565b5b600182019050919050565b7f416363657373436f6e74726f6c3a2063616e206f6e6c792072656e6f756e636560008201527f20726f6c657320666f722073656c660000000000000000000000000000000000602082015250565b6000613e12602f83613b95565b9150613e1d82613db6565b604082019050919050565b60006020820190508181036000830152613e4181613e05565b9050919050565b7f4e6f2073652068612063756d706c69646f2061756e0000000000000000000000600082015250565b6000613e7e601583613b95565b9150613e8982613e48565b602082019050919050565b60006020820190508181036000830152613ead81613e71565b9050919050565b6000613ebf826129fc565b9150613eca836129fc565b9250828201905080821115613ee257613ee1613d3f565b5b92915050565b7f55736572206973206e6f74206120646f63746f72000000000000000000000000600082015250565b6000613f1e601483613b95565b9150613f2982613ee8565b602082019050919050565b60006020820190508181036000830152613f4d81613f11565b9050919050565b600080fd5b600080fd5b600080fd5b60008235600160e003833603038112613f7f57613f7e613f54565b5b80830191505092915050565b60008083356001602003843603038112613fa857613fa7613f54565b5b80840192508235915067ffffffffffffffff821115613fca57613fc9613f59565b5b602083019250600182023603831315613fe657613fe5613f5e565b5b509250929050565b60006020828403121561400457614003612656565b5b600061401284828501613846565b91505092915050565b6000808335600160200384360303811261403857614037613f54565b5b80840192508235915067ffffffffffffffff82111561405a57614059613f59565b5b60208301925060208202360383131561407657614075613f5e565b5b509250929050565b600067ffffffffffffffff82111561409957614098612736565b5b602082029050602081019050919050565b600080fd5b600080fd5b6000604082840312156140ca576140c96140aa565b5b6140d46040612796565b905060006140e484828501612a1d565b600083015250602082013567ffffffffffffffff811115614108576141076140af565b5b61411484828501612833565b60208301525092915050565b600061413361412e8461407e565b612796565b9050808382526020820190506020840283018581111561415657614155612d37565b5b835b8181101561419d57803567ffffffffffffffff81111561417b5761417a61271b565b5b80860161418889826140b4565b85526020850194505050602081019050614158565b5050509392505050565b60006141b4368484614120565b905092915050565b60006141c7826129fc565b91506141d2836129fc565b92508282039050818111156141ea576141e9613d3f565b5b92915050565b7f4f776e61626c653a206e6577206f776e657220697320746865207a65726f206160008201527f6464726573730000000000000000000000000000000000000000000000000000602082015250565b600061424c602683613b95565b9150614257826141f0565b604082019050919050565b6000602082019050818103600083015261427b8161423f565b9050919050565b600061428d82613822565b915060ff82036142a05761429f613d3f565b5b600182019050919050565b7f4f776e61626c653a2063616c6c6572206973206e6f7420746865206f776e6572600082015250565b60006142e1602083613b95565b91506142ec826142ab565b602082019050919050565b60006020820190508181036000830152614310816142d4565b9050919050565b600081905092915050565b7f416363657373436f6e74726f6c3a206163636f756e7420000000000000000000600082015250565b6000614358601783614317565b915061436382614322565b601782019050919050565b600061437982612e0b565b6143838185614317565b9350614393818560208601612e27565b80840191505092915050565b7f206973206d697373696e6720726f6c6520000000000000000000000000000000600082015250565b60006143d5601183614317565b91506143e08261439f565b601182019050919050565b60006143f68261434b565b9150614402828561436e565b915061440d826143c8565b9150614419828461436e565b91508190509392505050565b600061443082612e0b565b61443a8185613b95565b935061444a818560208601612e27565b61445381612725565b840191505092915050565b600060208201905081810360008301526144788184614425565b905092915050565b600061448b826129fc565b9150614496836129fc565b92508282026144a4816129fc565b915082820484148315176144bb576144ba613d3f565b5b5092915050565b60006144cd826129fc565b9150600082036144e0576144df613d3f565b5b600182039050919050565b7f537472696e67733a20686578206c656e67746820696e73756666696369656e74600082015250565b6000614521602083613b95565b915061452c826144eb565b602082019050919050565b6000602082019050818103600083015261455081614514565b905091905056fea2646970667358221220d01b6c73521e4fe0efc2533202c1ae9968cd5f29599ecc62659c1c386dac508c64736f6c63430008120033",
  "linkReferences": {},
  "deployedLinkReferences": {}
}