{
  "_format": "hh-sol-artifact-1",
  "contractName": "MediBoomer",
  "sourceName": "contracts/MediBoomer.sol",
  "abi": [
    {
      "inputs": [
        {
          "internalType": "uint256",
          "name": "updateInterval",
          "type": "uint256"
        }
      ],
      "stateMutability": "nonpayable",
      "type": "constructor"
    },
    {
      "anonymous": false,
      "inputs": [
        {
          "indexed": true,
          "internalType": "address",
          "name": "previousOwner",
          "type": "address"
        },
        {
          "indexed": true,
          "internalType": "address",
          "name": "newOwner",
          "type": "address"
        }
      ],
      "name": "OwnershipTransferred",
      "type": "event"
    },
    {
      "anonymous": false,
      "inputs": [
        {
          "indexed": true,
          "internalType": "address",
          "name": "userAddress",
          "type": "address"
        },
        {
          "indexed": true,
          "internalType": "string",
          "name": "name",
          "type": "string"
        }
      ],
      "name": "WamAdded",
      "type": "event"
    },
    {
      "inputs": [
        {
          "internalType": "string",
          "name": "_time",
          "type": "string"
        }
      ],
      "name": "addIntakeTime",
      "outputs": [],
      "stateMutability": "nonpayable",
      "type": "function"
    },
    {
      "inputs": [
        {
          "internalType": "address",
          "name": "_patient",
          "type": "address"
        },
        {
          "components": [
            {
              "internalType": "uint256",
              "name": "id",
              "type": "uint256"
            },
            {
              "internalType": "uint256",
              "name": "medicineId",
              "type": "uint256"
            },
            {
              "internalType": "string",
              "name": "dose",
              "type": "string"
            },
            {
              "internalType": "bool",
              "name": "isDelivered",
              "type": "bool"
            },
            {
              "internalType": "uint256",
              "name": "timeDelivered",
              "type": "uint256"
            },
            {
              "internalType": "uint8",
              "name": "duration",
              "type": "uint8"
            },
            {
              "components": [
                {
                  "internalType": "uint256",
                  "name": "id",
                  "type": "uint256"
                },
                {
                  "internalType": "string",
                  "name": "time",
                  "type": "string"
                }
              ],
              "internalType": "struct MediBoomer.IntakeTime[]",
              "name": "intakeTimeList",
              "type": "tuple[]"
            }
          ],
          "internalType": "struct MediBoomer.Prescription[]",
          "name": "_prescriptionList",
          "type": "tuple[]"
        }
      ],
      "name": "addMedicalRecipe",
      "outputs": [],
      "stateMutability": "nonpayable",
      "type": "function"
    },
    {
      "inputs": [
        {
          "internalType": "string",
          "name": "_name",
          "type": "string"
        },
        {
          "internalType": "uint8",
          "name": "_wamId",
          "type": "uint8"
        }
      ],
      "name": "addMedicine",
      "outputs": [],
      "stateMutability": "nonpayable",
      "type": "function"
    },
    {
      "inputs": [
        {
          "internalType": "string",
          "name": "_id",
          "type": "string"
        },
        {
          "internalType": "string",
          "name": "_name",
          "type": "string"
        },
        {
          "internalType": "string",
          "name": "_email",
          "type": "string"
        },
        {
          "internalType": "address",
          "name": "_contractAddress",
          "type": "address"
        },
        {
          "internalType": "enum MediBoomer.UserRole",
          "name": "_userRole",
          "type": "uint8"
        }
      ],
      "name": "addUser",
      "outputs": [],
      "stateMutability": "nonpayable",
      "type": "function"
    },
    {
      "inputs": [
        {
          "internalType": "string",
          "name": "_name",
          "type": "string"
        },
        {
          "internalType": "address",
          "name": "userAddress",
          "type": "address"
        }
      ],
      "name": "addWaysAdministeringMedicines",
      "outputs": [],
      "stateMutability": "nonpayable",
      "type": "function"
    },
    {
      "inputs": [
        {
          "internalType": "bytes",
          "name": "checkData",
          "type": "bytes"
        }
      ],
      "name": "checkUpkeep",
      "outputs": [
        {
          "internalType": "bool",
          "name": "upkeepNeeded",
          "type": "bool"
        },
        {
          "internalType": "bytes",
          "name": "performData",
          "type": "bytes"
        }
      ],
      "stateMutability": "view",
      "type": "function"
    },
    {
      "inputs": [],
      "name": "counter",
      "outputs": [
        {
          "internalType": "uint256",
          "name": "",
          "type": "uint256"
        }
      ],
      "stateMutability": "view",
      "type": "function"
    },
    {
      "inputs": [],
      "name": "getIntakeTimeList",
      "outputs": [
        {
          "components": [
            {
              "internalType": "uint256",
              "name": "id",
              "type": "uint256"
            },
            {
              "internalType": "string",
              "name": "time",
              "type": "string"
            }
          ],
          "internalType": "struct MediBoomer.IntakeTime[]",
          "name": "",
          "type": "tuple[]"
        }
      ],
      "stateMutability": "view",
      "type": "function"
    },
    {
      "inputs": [
        {
          "internalType": "address",
          "name": "_address",
          "type": "address"
        },
        {
          "internalType": "uint256",
          "name": "_medicalRecipeId",
          "type": "uint256"
        }
      ],
      "name": "getMedicalRecipe",
      "outputs": [
        {
          "components": [
            {
              "internalType": "uint256",
              "name": "id",
              "type": "uint256"
            },
            {
              "internalType": "address",
              "name": "patient",
              "type": "address"
            },
            {
              "internalType": "uint256[]",
              "name": "prescriptions",
              "type": "uint256[]"
            },
            {
              "internalType": "enum MediBoomer.MedicalRecipeStatus",
              "name": "status",
              "type": "uint8"
            }
          ],
          "internalType": "struct MediBoomer.MedicalRecipe",
          "name": "",
          "type": "tuple"
        }
      ],
      "stateMutability": "view",
      "type": "function"
    },
    {
      "inputs": [],
      "name": "getMedicineList",
      "outputs": [
        {
          "components": [
            {
              "internalType": "uint256",
              "name": "id",
              "type": "uint256"
            },
            {
              "internalType": "string",
              "name": "name",
              "type": "string"
            },
            {
              "internalType": "uint256",
              "name": "wamId",
              "type": "uint256"
            }
          ],
          "internalType": "struct MediBoomer.Medicine[]",
          "name": "",
          "type": "tuple[]"
        }
      ],
      "stateMutability": "view",
      "type": "function"
    },
    {
      "inputs": [],
      "name": "getPatientList",
      "outputs": [
        {
          "components": [
            {
              "internalType": "string",
              "name": "id",
              "type": "string"
            },
            {
              "internalType": "string",
              "name": "name",
              "type": "string"
            },
            {
              "internalType": "string",
              "name": "email",
              "type": "string"
            },
            {
              "internalType": "address",
              "name": "contractAddress",
              "type": "address"
            },
            {
              "internalType": "enum MediBoomer.UserRole",
              "name": "userRole",
              "type": "uint8"
            },
            {
              "internalType": "bool",
              "name": "isExists",
              "type": "bool"
            }
          ],
          "internalType": "struct MediBoomer.User[]",
          "name": "",
          "type": "tuple[]"
        }
      ],
      "stateMutability": "view",
      "type": "function"
    },
    {
      "inputs": [
        {
          "internalType": "address",
          "name": "_address",
          "type": "address"
        }
      ],
      "name": "getPatientMedicalRecipeList",
      "outputs": [
        {
          "components": [
            {
              "internalType": "uint256",
              "name": "id",
              "type": "uint256"
            },
            {
              "internalType": "address",
              "name": "patient",
              "type": "address"
            },
            {
              "internalType": "uint256[]",
              "name": "prescriptions",
              "type": "uint256[]"
            },
            {
              "internalType": "enum MediBoomer.MedicalRecipeStatus",
              "name": "status",
              "type": "uint8"
            }
          ],
          "internalType": "struct MediBoomer.MedicalRecipe[]",
          "name": "",
          "type": "tuple[]"
        }
      ],
      "stateMutability": "view",
      "type": "function"
    },
    {
      "inputs": [
        {
          "internalType": "address",
          "name": "userAddress",
          "type": "address"
        }
      ],
      "name": "getUserInfo",
      "outputs": [
        {
          "components": [
            {
              "internalType": "string",
              "name": "id",
              "type": "string"
            },
            {
              "internalType": "string",
              "name": "name",
              "type": "string"
            },
            {
              "internalType": "string",
              "name": "email",
              "type": "string"
            },
            {
              "internalType": "address",
              "name": "contractAddress",
              "type": "address"
            },
            {
              "internalType": "enum MediBoomer.UserRole",
              "name": "userRole",
              "type": "uint8"
            },
            {
              "internalType": "bool",
              "name": "isExists",
              "type": "bool"
            }
          ],
          "internalType": "struct MediBoomer.User",
          "name": "",
          "type": "tuple"
        }
      ],
      "stateMutability": "view",
      "type": "function"
    },
    {
      "inputs": [],
      "name": "getWamList",
      "outputs": [
        {
          "components": [
            {
              "internalType": "uint256",
              "name": "id",
              "type": "uint256"
            },
            {
              "internalType": "string",
              "name": "name",
              "type": "string"
            }
          ],
          "internalType": "struct MediBoomer.WaysAdministeringMedicines[]",
          "name": "",
          "type": "tuple[]"
        }
      ],
      "stateMutability": "view",
      "type": "function"
    },
    {
      "inputs": [],
      "name": "interval",
      "outputs": [
        {
          "internalType": "uint256",
          "name": "",
          "type": "uint256"
        }
      ],
      "stateMutability": "view",
      "type": "function"
    },
    {
      "inputs": [],
      "name": "lastTimeStamp",
      "outputs": [
        {
          "internalType": "uint256",
          "name": "",
          "type": "uint256"
        }
      ],
      "stateMutability": "view",
      "type": "function"
    },
    {
      "inputs": [],
      "name": "owner",
      "outputs": [
        {
          "internalType": "address",
          "name": "",
          "type": "address"
        }
      ],
      "stateMutability": "view",
      "type": "function"
    },
    {
      "inputs": [
        {
          "internalType": "bytes",
          "name": "",
          "type": "bytes"
        }
      ],
      "name": "performUpkeep",
      "outputs": [],
      "stateMutability": "nonpayable",
      "type": "function"
    },
    {
      "inputs": [],
      "name": "renounceOwnership",
      "outputs": [],
      "stateMutability": "nonpayable",
      "type": "function"
    },
    {
      "inputs": [
        {
          "internalType": "address",
          "name": "newOwner",
          "type": "address"
        }
      ],
      "name": "transferOwnership",
      "outputs": [],
      "stateMutability": "nonpayable",
      "type": "function"
    }
  ],
  "bytecode": "0x60a06040523480156200001157600080fd5b506040516200398c3803806200398c833981810160405281019062000037919062000181565b620000576200004b6200007560201b60201c565b6200007d60201b60201c565b806080818152505042600781905550600060068190555050620001b3565b600033905090565b60008060009054906101000a900473ffffffffffffffffffffffffffffffffffffffff169050816000806101000a81548173ffffffffffffffffffffffffffffffffffffffff021916908373ffffffffffffffffffffffffffffffffffffffff1602179055508173ffffffffffffffffffffffffffffffffffffffff168173ffffffffffffffffffffffffffffffffffffffff167f8be0079c531659141344cd1fd0a4f28419497f9722a3daafe3b4186f6b6457e060405160405180910390a35050565b600080fd5b6000819050919050565b6200015b8162000146565b81146200016757600080fd5b50565b6000815190506200017b8162000150565b92915050565b6000602082840312156200019a576200019962000141565b5b6000620001aa848285016200016a565b91505092915050565b6080516137b6620001d66000396000818161111e01526114fe01526137b66000f3fe608060405234801561001057600080fd5b506004361061012c5760003560e01c8063715018a6116100ad57806399e08a7e1161007157806399e08a7e14610320578063a34580721461033c578063ba115db01461035a578063f2fde38b14610378578063f56bb4fa146103945761012c565b8063715018a61461028c578063719f35201461029657806376b0d290146102b45780638da5cb5b146102e4578063947a36fb146103025761012c565b8063503b1354116100f4578063503b1354146101d357806361bc221a146101f15780636386c1c71461020f578063691ddadc1461023f5780636e04ff0d1461025b5761012c565b80631300914c1461013157806323dc65e31461014d5780632535f6a51461017d5780633f3b3b27146101995780634585e33b146101b7575b600080fd5b61014b60048036038101906101469190611e4e565b6103b0565b005b61016760048036038101906101629190611f53565b610762565b604051610174919061213a565b60405180910390f35b6101976004803603810190610192919061215c565b6107ea565b005b6101a1610868565b6040516101ae91906121b4565b60405180910390f35b6101d160048036038101906101cc919061222f565b61086e565b005b6101db6108ec565b6040516101e891906124b7565b60405180910390f35b6101f9610bad565b60405161020691906121b4565b60405180910390f35b610229600480360381019061022491906124d9565b610bb3565b604051610236919061259d565b60405180910390f35b61025960048036038101906102549190612615565b610e6e565b005b61027560048036038101906102709190612716565b611108565b6040516102839291906127c3565b60405180910390f35b610294611164565b005b61029e611178565b6040516102ab91906128f2565b60405180910390f35b6102ce60048036038101906102c991906124d9565b611273565b6040516102db9190612a39565b60405180910390f35b6102ec6114d3565b6040516102f99190612a6a565b60405180910390f35b61030a6114fc565b60405161031791906121b4565b60405180910390f35b61033a60048036038101906103359190612a85565b611520565b005b6103446115f8565b6040516103519190612bf3565b60405180910390f35b6103626116fd565b60405161036f9190612d14565b60405180910390f35b610392600480360381019061038d91906124d9565b6117f8565b005b6103ae60048036038101906103a99190612d6f565b61187b565b005b600f60008373ffffffffffffffffffffffffffffffffffffffff1673ffffffffffffffffffffffffffffffffffffffff16815260200190815260200160002060030160159054906101000a900460ff1615610440576040517f08c379a000000000000000000000000000000000000000000000000000000000815260040161043790612e28565b60405180910390fd5b6040518060c001604052808681526020018581526020018481526020018373ffffffffffffffffffffffffffffffffffffffff16815260200182600281111561048c5761048b612060565b5b815260200160011515815250600f60008473ffffffffffffffffffffffffffffffffffffffff1673ffffffffffffffffffffffffffffffffffffffff16815260200190815260200160002060008201518160000190816104ec9190613054565b5060208201518160010190816105029190613054565b5060408201518160020190816105189190613054565b5060608201518160030160006101000a81548173ffffffffffffffffffffffffffffffffffffffff021916908373ffffffffffffffffffffffffffffffffffffffff16021790555060808201518160030160146101000a81548160ff0219169083600281111561058b5761058a612060565b5b021790555060a08201518160030160156101000a81548160ff0219169083151502179055509050506002808111156105c6576105c5612060565b5b8160028111156105d9576105d8612060565b5b0361075b57600b600f60008473ffffffffffffffffffffffffffffffffffffffff1673ffffffffffffffffffffffffffffffffffffffff16815260200190815260200160002090806001815401808255809150506001900390600052602060002090600402016000909190919091506000820181600001908161065c919061313c565b5060018201816001019081610671919061313c565b5060028201816002019081610686919061313c565b506003820160009054906101000a900473ffffffffffffffffffffffffffffffffffffffff168160030160006101000a81548173ffffffffffffffffffffffffffffffffffffffff021916908373ffffffffffffffffffffffffffffffffffffffff1602179055506003820160149054906101000a900460ff168160030160146101000a81548160ff0219169083600281111561072657610725612060565b5b02179055506003820160159054906101000a900460ff168160030160156101000a81548160ff02191690831515021790555050505b5050505050565b61076a611bc1565b600061077584611273565b90506000805b82518110156107c4578483828151811061079857610797613224565b5b602002602001015160000151036107b1578091506107c4565b80806107bc90613282565b91505061077b565b508181815181106107d8576107d7613224565b5b60200260200101519250505092915050565b60006107f6600361190d565b9050600a60405180604001604052808381526020018481525090806001815401808255809150506001900390600052602060002090600202016000909190919091506000820151816000015560208201518160010190816108579190613054565b505050610864600361191b565b5050565b60075481565b600061088860405180602001604052806000815250611108565b509050806108cb576040517f08c379a00000000000000000000000000000000000000000000000000000000081526004016108c290613316565b60405180910390fd5b4260078190555060016006546108e19190613336565b600681905550505050565b6060600b805480602002602001604051908101604052809291908181526020016000905b82821015610ba457838290600052602060002090600402016040518060c001604052908160008201805461094390612e77565b80601f016020809104026020016040519081016040528092919081815260200182805461096f90612e77565b80156109bc5780601f10610991576101008083540402835291602001916109bc565b820191906000526020600020905b81548152906001019060200180831161099f57829003601f168201915b505050505081526020016001820180546109d590612e77565b80601f0160208091040260200160405190810160405280929190818152602001828054610a0190612e77565b8015610a4e5780601f10610a2357610100808354040283529160200191610a4e565b820191906000526020600020905b815481529060010190602001808311610a3157829003601f168201915b50505050508152602001600282018054610a6790612e77565b80601f0160208091040260200160405190810160405280929190818152602001828054610a9390612e77565b8015610ae05780601f10610ab557610100808354040283529160200191610ae0565b820191906000526020600020905b815481529060010190602001808311610ac357829003601f168201915b505050505081526020016003820160009054906101000a900473ffffffffffffffffffffffffffffffffffffffff1673ffffffffffffffffffffffffffffffffffffffff1673ffffffffffffffffffffffffffffffffffffffff1681526020016003820160149054906101000a900460ff166002811115610b6457610b63612060565b5b6002811115610b7657610b75612060565b5b81526020016003820160159054906101000a900460ff16151515158152505081526020019060010190610910565b50505050905090565b60065481565b610bbb611c11565b600f60008373ffffffffffffffffffffffffffffffffffffffff1673ffffffffffffffffffffffffffffffffffffffff1681526020019081526020016000206040518060c0016040529081600082018054610c1590612e77565b80601f0160208091040260200160405190810160405280929190818152602001828054610c4190612e77565b8015610c8e5780601f10610c6357610100808354040283529160200191610c8e565b820191906000526020600020905b815481529060010190602001808311610c7157829003601f168201915b50505050508152602001600182018054610ca790612e77565b80601f0160208091040260200160405190810160405280929190818152602001828054610cd390612e77565b8015610d205780601f10610cf557610100808354040283529160200191610d20565b820191906000526020600020905b815481529060010190602001808311610d0357829003601f168201915b50505050508152602001600282018054610d3990612e77565b80601f0160208091040260200160405190810160405280929190818152602001828054610d6590612e77565b8015610db25780601f10610d8757610100808354040283529160200191610db2565b820191906000526020600020905b815481529060010190602001808311610d9557829003601f168201915b505050505081526020016003820160009054906101000a900473ffffffffffffffffffffffffffffffffffffffff1673ffffffffffffffffffffffffffffffffffffffff1673ffffffffffffffffffffffffffffffffffffffff1681526020016003820160149054906101000a900460ff166002811115610e3657610e35612060565b5b6002811115610e4857610e47612060565b5b81526020016003820160159054906101000a900460ff1615151515815250509050919050565b6000610e7a600261190d565b90506000600d60008381526020019081526020016000209050818160000181905550848160010160006101000a81548173ffffffffffffffffffffffffffffffffffffffff021916908373ffffffffffffffffffffffffffffffffffffffff16021790555060008160030160006101000a81548160ff02191690836002811115610f0757610f06612060565b5b021790555060005b84849050811015611090576000610f26600561190d565b905061104781878785818110610f3f57610f3e613224565b5b9050602002810190610f519190613379565b60200135888886818110610f6857610f67613224565b5b9050602002810190610f7a9190613379565b8060400190610f8991906133a1565b8080601f016020809104026020016040519081016040528093929190818152602001838380828437600081840152601f19601f82011690508083019250505050505050898987818110610fdf57610fde613224565b5b9050602002810190610ff19190613379565b60a00160208101906110039190613404565b8a8a8881811061101657611015613224565b5b90506020028101906110289190613379565b8060c001906110379190613431565b9061104291906135bd565b611931565b8260020181908060018154018082558091505060019003906000526020600020016000909190919091505561107c600561191b565b50808061108890613282565b915050610f0f565b5061109b600261191b565b600c60008673ffffffffffffffffffffffffffffffffffffffff1673ffffffffffffffffffffffffffffffffffffffff1681526020019081526020016000208290806001815401808255809150506001900390600052602060002001600090919091909150555050505050565b60006060600060065460088054905014905060007f00000000000000000000000000000000000000000000000000000000000000006007544261114b91906135d2565b1190508180156111585750805b93508492505050915091565b61116c611a77565b6111766000611af5565b565b60606008805480602002602001604051908101604052809291908181526020016000905b8282101561126a5783829060005260206000209060020201604051806040016040529081600082015481526020016001820180546111d990612e77565b80601f016020809104026020016040519081016040528092919081815260200182805461120590612e77565b80156112525780601f1061122757610100808354040283529160200191611252565b820191906000526020600020905b81548152906001019060200180831161123557829003601f168201915b5050505050815250508152602001906001019061119c565b50505050905090565b60606000600c60008473ffffffffffffffffffffffffffffffffffffffff1673ffffffffffffffffffffffffffffffffffffffff16815260200190815260200160002080548060200260200160405190810160405280929190818152602001828054801561130057602002820191906000526020600020905b8154815260200190600101908083116112ec575b505050505090506000815167ffffffffffffffff81111561132457611323611ca0565b5b60405190808252806020026020018201604052801561135d57816020015b61134a611bc1565b8152602001906001900390816113425790505b50905060005b82518110156114c857600d600084838151811061138357611382613224565b5b60200260200101518152602001908152602001600020604051806080016040529081600082015481526020016001820160009054906101000a900473ffffffffffffffffffffffffffffffffffffffff1673ffffffffffffffffffffffffffffffffffffffff1673ffffffffffffffffffffffffffffffffffffffff1681526020016002820180548060200260200160405190810160405280929190818152602001828054801561145357602002820191906000526020600020905b81548152602001906001019080831161143f575b505050505081526020016003820160009054906101000a900460ff16600281111561148157611480612060565b5b600281111561149357611492612060565b5b815250508282815181106114aa576114a9613224565b5b602002602001018190525080806114c090613282565b915050611363565b508092505050919050565b60008060009054906101000a900473ffffffffffffffffffffffffffffffffffffffff16905090565b7f000000000000000000000000000000000000000000000000000000000000000081565b600061152c600161190d565b90506008604051806040016040528083815260200185815250908060018154018082558091505060019003906000526020600020906002020160009091909190915060008201518160000155602082015181600101908161158d9190613054565b50505061159a600161191b565b826040516115a89190613642565b60405180910390208273ffffffffffffffffffffffffffffffffffffffff167f2b91487148e8f6c5e6abb13b7bb8e4696507bfa6a3db912863e517dcab3be0ea60405160405180910390a3505050565b60606009805480602002602001604051908101604052809291908181526020016000905b828210156116f457838290600052602060002090600302016040518060600160405290816000820154815260200160018201805461165990612e77565b80601f016020809104026020016040519081016040528092919081815260200182805461168590612e77565b80156116d25780601f106116a7576101008083540402835291602001916116d2565b820191906000526020600020905b8154815290600101906020018083116116b557829003601f168201915b505050505081526020016002820154815250508152602001906001019061161c565b50505050905090565b6060600a805480602002602001604051908101604052809291908181526020016000905b828210156117ef57838290600052602060002090600202016040518060400160405290816000820154815260200160018201805461175e90612e77565b80601f016020809104026020016040519081016040528092919081815260200182805461178a90612e77565b80156117d75780601f106117ac576101008083540402835291602001916117d7565b820191906000526020600020905b8154815290600101906020018083116117ba57829003601f168201915b50505050508152505081526020019060010190611721565b50505050905090565b611800611a77565b600073ffffffffffffffffffffffffffffffffffffffff168173ffffffffffffffffffffffffffffffffffffffff160361186f576040517f08c379a0000000000000000000000000000000000000000000000000000000008152600401611866906136cb565b60405180910390fd5b61187881611af5565b50565b6000611887600461190d565b9050600960405180606001604052808381526020018581526020018460ff1681525090806001815401808255809150506001900390600052602060002090600302016000909190919091506000820151816000015560208201518160010190816118f19190613054565b50604082015181600201555050611908600461191b565b505050565b600081600001549050919050565b6001816000016000828254019250508190555050565b6000600e600087815260200190815260200160002090508581600001819055508481600101819055508381600201908161196b9190613054565b5060008160030160006101000a81548160ff021916908315150217905550828160050160006101000a81548160ff021916908360ff16021790555060005b82518160ff161015611a6e57816006016040518060400160405280858460ff16815181106119da576119d9613224565b5b6020026020010151600001518152602001858460ff1681518110611a0157611a00613224565b5b6020026020010151602001518152509080600181540180825580915050600190039060005260206000209060020201600090919091909150600082015181600001556020820151816001019081611a589190613054565b5050508080611a66906136eb565b9150506119a9565b50505050505050565b611a7f611bb9565b73ffffffffffffffffffffffffffffffffffffffff16611a9d6114d3565b73ffffffffffffffffffffffffffffffffffffffff1614611af3576040517f08c379a0000000000000000000000000000000000000000000000000000000008152600401611aea90613760565b60405180910390fd5b565b60008060009054906101000a900473ffffffffffffffffffffffffffffffffffffffff169050816000806101000a81548173ffffffffffffffffffffffffffffffffffffffff021916908373ffffffffffffffffffffffffffffffffffffffff1602179055508173ffffffffffffffffffffffffffffffffffffffff168173ffffffffffffffffffffffffffffffffffffffff167f8be0079c531659141344cd1fd0a4f28419497f9722a3daafe3b4186f6b6457e060405160405180910390a35050565b600033905090565b604051806080016040528060008152602001600073ffffffffffffffffffffffffffffffffffffffff1681526020016060815260200160006002811115611c0b57611c0a612060565b5b81525090565b6040518060c00160405280606081526020016060815260200160608152602001600073ffffffffffffffffffffffffffffffffffffffff16815260200160006002811115611c6257611c61612060565b5b81526020016000151581525090565b6000604051905090565b600080fd5b600080fd5b600080fd5b600080fd5b6000601f19601f8301169050919050565b7f4e487b7100000000000000000000000000000000000000000000000000000000600052604160045260246000fd5b611cd882611c8f565b810181811067ffffffffffffffff82111715611cf757611cf6611ca0565b5b80604052505050565b6000611d0a611c71565b9050611d168282611ccf565b919050565b600067ffffffffffffffff821115611d3657611d35611ca0565b5b611d3f82611c8f565b9050602081019050919050565b82818337600083830152505050565b6000611d6e611d6984611d1b565b611d00565b905082815260208101848484011115611d8a57611d89611c8a565b5b611d95848285611d4c565b509392505050565b600082601f830112611db257611db1611c85565b5b8135611dc2848260208601611d5b565b91505092915050565b600073ffffffffffffffffffffffffffffffffffffffff82169050919050565b6000611df682611dcb565b9050919050565b611e0681611deb565b8114611e1157600080fd5b50565b600081359050611e2381611dfd565b92915050565b60038110611e3657600080fd5b50565b600081359050611e4881611e29565b92915050565b600080600080600060a08688031215611e6a57611e69611c7b565b5b600086013567ffffffffffffffff811115611e8857611e87611c80565b5b611e9488828901611d9d565b955050602086013567ffffffffffffffff811115611eb557611eb4611c80565b5b611ec188828901611d9d565b945050604086013567ffffffffffffffff811115611ee257611ee1611c80565b5b611eee88828901611d9d565b9350506060611eff88828901611e14565b9250506080611f1088828901611e39565b9150509295509295909350565b6000819050919050565b611f3081611f1d565b8114611f3b57600080fd5b50565b600081359050611f4d81611f27565b92915050565b60008060408385031215611f6a57611f69611c7b565b5b6000611f7885828601611e14565b9250506020611f8985828601611f3e565b9150509250929050565b611f9c81611f1d565b82525050565b611fab81611deb565b82525050565b600081519050919050565b600082825260208201905092915050565b6000819050602082019050919050565b6000611fe98383611f93565b60208301905092915050565b6000602082019050919050565b600061200d82611fb1565b6120178185611fbc565b935061202283611fcd565b8060005b8381101561205357815161203a8882611fdd565b975061204583611ff5565b925050600181019050612026565b5085935050505092915050565b7f4e487b7100000000000000000000000000000000000000000000000000000000600052602160045260246000fd5b600381106120a05761209f612060565b5b50565b60008190506120b18261208f565b919050565b60006120c1826120a3565b9050919050565b6120d1816120b6565b82525050565b60006080830160008301516120ef6000860182611f93565b5060208301516121026020860182611fa2565b506040830151848203604086015261211a8282612002565b915050606083015161212f60608601826120c8565b508091505092915050565b6000602082019050818103600083015261215481846120d7565b905092915050565b60006020828403121561217257612171611c7b565b5b600082013567ffffffffffffffff8111156121905761218f611c80565b5b61219c84828501611d9d565b91505092915050565b6121ae81611f1d565b82525050565b60006020820190506121c960008301846121a5565b92915050565b600080fd5b600080fd5b60008083601f8401126121ef576121ee611c85565b5b8235905067ffffffffffffffff81111561220c5761220b6121cf565b5b602083019150836001820283011115612228576122276121d4565b5b9250929050565b6000806020838503121561224657612245611c7b565b5b600083013567ffffffffffffffff81111561226457612263611c80565b5b612270858286016121d9565b92509250509250929050565b600081519050919050565b600082825260208201905092915050565b6000819050602082019050919050565b600081519050919050565b600082825260208201905092915050565b60005b838110156122e25780820151818401526020810190506122c7565b60008484015250505050565b60006122f9826122a8565b61230381856122b3565b93506123138185602086016122c4565b61231c81611c8f565b840191505092915050565b6003811061233857612337612060565b5b50565b600081905061234982612327565b919050565b60006123598261233b565b9050919050565b6123698161234e565b82525050565b60008115159050919050565b6123848161236f565b82525050565b600060c08301600083015184820360008601526123a782826122ee565b915050602083015184820360208601526123c182826122ee565b915050604083015184820360408601526123db82826122ee565b91505060608301516123f06060860182611fa2565b5060808301516124036080860182612360565b5060a083015161241660a086018261237b565b508091505092915050565b600061242d838361238a565b905092915050565b6000602082019050919050565b600061244d8261227c565b6124578185612287565b93508360208202850161246985612298565b8060005b858110156124a557848403895281516124868582612421565b945061249183612435565b925060208a0199505060018101905061246d565b50829750879550505050505092915050565b600060208201905081810360008301526124d18184612442565b905092915050565b6000602082840312156124ef576124ee611c7b565b5b60006124fd84828501611e14565b91505092915050565b600060c083016000830151848203600086015261252382826122ee565b9150506020830151848203602086015261253d82826122ee565b9150506040830151848203604086015261255782826122ee565b915050606083015161256c6060860182611fa2565b50608083015161257f6080860182612360565b5060a083015161259260a086018261237b565b508091505092915050565b600060208201905081810360008301526125b78184612506565b905092915050565b60008083601f8401126125d5576125d4611c85565b5b8235905067ffffffffffffffff8111156125f2576125f16121cf565b5b60208301915083602082028301111561260e5761260d6121d4565b5b9250929050565b60008060006040848603121561262e5761262d611c7b565b5b600061263c86828701611e14565b935050602084013567ffffffffffffffff81111561265d5761265c611c80565b5b612669868287016125bf565b92509250509250925092565b600067ffffffffffffffff8211156126905761268f611ca0565b5b61269982611c8f565b9050602081019050919050565b60006126b96126b484612675565b611d00565b9050828152602081018484840111156126d5576126d4611c8a565b5b6126e0848285611d4c565b509392505050565b600082601f8301126126fd576126fc611c85565b5b813561270d8482602086016126a6565b91505092915050565b60006020828403121561272c5761272b611c7b565b5b600082013567ffffffffffffffff81111561274a57612749611c80565b5b612756848285016126e8565b91505092915050565b6127688161236f565b82525050565b600081519050919050565b600082825260208201905092915050565b60006127958261276e565b61279f8185612779565b93506127af8185602086016122c4565b6127b881611c8f565b840191505092915050565b60006040820190506127d8600083018561275f565b81810360208301526127ea818461278a565b90509392505050565b600081519050919050565b600082825260208201905092915050565b6000819050602082019050919050565b60006040830160008301516128376000860182611f93565b506020830151848203602086015261284f82826122ee565b9150508091505092915050565b6000612868838361281f565b905092915050565b6000602082019050919050565b6000612888826127f3565b61289281856127fe565b9350836020820285016128a48561280f565b8060005b858110156128e057848403895281516128c1858261285c565b94506128cc83612870565b925060208a019950506001810190506128a8565b50829750879550505050505092915050565b6000602082019050818103600083015261290c818461287d565b905092915050565b600081519050919050565b600082825260208201905092915050565b6000819050602082019050919050565b60006080830160008301516129586000860182611f93565b50602083015161296b6020860182611fa2565b50604083015184820360408601526129838282612002565b915050606083015161299860608601826120c8565b508091505092915050565b60006129af8383612940565b905092915050565b6000602082019050919050565b60006129cf82612914565b6129d9818561291f565b9350836020820285016129eb85612930565b8060005b85811015612a275784840389528151612a0885826129a3565b9450612a13836129b7565b925060208a019950506001810190506129ef565b50829750879550505050505092915050565b60006020820190508181036000830152612a5381846129c4565b905092915050565b612a6481611deb565b82525050565b6000602082019050612a7f6000830184612a5b565b92915050565b60008060408385031215612a9c57612a9b611c7b565b5b600083013567ffffffffffffffff811115612aba57612ab9611c80565b5b612ac685828601611d9d565b9250506020612ad785828601611e14565b9150509250929050565b600081519050919050565b600082825260208201905092915050565b6000819050602082019050919050565b6000606083016000830151612b256000860182611f93565b5060208301518482036020860152612b3d82826122ee565b9150506040830151612b526040860182611f93565b508091505092915050565b6000612b698383612b0d565b905092915050565b6000602082019050919050565b6000612b8982612ae1565b612b938185612aec565b935083602082028501612ba585612afd565b8060005b85811015612be15784840389528151612bc28582612b5d565b9450612bcd83612b71565b925060208a01995050600181019050612ba9565b50829750879550505050505092915050565b60006020820190508181036000830152612c0d8184612b7e565b905092915050565b600081519050919050565b600082825260208201905092915050565b6000819050602082019050919050565b6000604083016000830151612c596000860182611f93565b5060208301518482036020860152612c7182826122ee565b9150508091505092915050565b6000612c8a8383612c41565b905092915050565b6000602082019050919050565b6000612caa82612c15565b612cb48185612c20565b935083602082028501612cc685612c31565b8060005b85811015612d025784840389528151612ce38582612c7e565b9450612cee83612c92565b925060208a01995050600181019050612cca565b50829750879550505050505092915050565b60006020820190508181036000830152612d2e8184612c9f565b905092915050565b600060ff82169050919050565b612d4c81612d36565b8114612d5757600080fd5b50565b600081359050612d6981612d43565b92915050565b60008060408385031215612d8657612d85611c7b565b5b600083013567ffffffffffffffff811115612da457612da3611c80565b5b612db085828601611d9d565b9250506020612dc185828601612d5a565b9150509250929050565b600082825260208201905092915050565b7f5573657220616c72656164792065786973747300000000000000000000000000600082015250565b6000612e12601383612dcb565b9150612e1d82612ddc565b602082019050919050565b60006020820190508181036000830152612e4181612e05565b9050919050565b7f4e487b7100000000000000000000000000000000000000000000000000000000600052602260045260246000fd5b60006002820490506001821680612e8f57607f821691505b602082108103612ea257612ea1612e48565b5b50919050565b60008190508160005260206000209050919050565b60006020601f8301049050919050565b600082821b905092915050565b600060088302612f0a7fffffffffffffffffffffffffffffffffffffffffffffffffffffffffffffffff82612ecd565b612f148683612ecd565b95508019841693508086168417925050509392505050565b6000819050919050565b6000612f51612f4c612f4784611f1d565b612f2c565b611f1d565b9050919050565b6000819050919050565b612f6b83612f36565b612f7f612f7782612f58565b848454612eda565b825550505050565b600090565b612f94612f87565b612f9f818484612f62565b505050565b5b81811015612fc357612fb8600082612f8c565b600181019050612fa5565b5050565b601f82111561300857612fd981612ea8565b612fe284612ebd565b81016020851015612ff1578190505b613005612ffd85612ebd565b830182612fa4565b50505b505050565b600082821c905092915050565b600061302b6000198460080261300d565b1980831691505092915050565b6000613044838361301a565b9150826002028217905092915050565b61305d826122a8565b67ffffffffffffffff81111561307657613075611ca0565b5b6130808254612e77565b61308b828285612fc7565b600060209050601f8311600181146130be57600084156130ac578287015190505b6130b68582613038565b86555061311e565b601f1984166130cc86612ea8565b60005b828110156130f4578489015182556001820191506020850194506020810190506130cf565b86831015613111578489015161310d601f89168261301a565b8355505b6001600288020188555050505b505050505050565b60008154905061313581612e77565b9050919050565b81810361314a575050613222565b61315382613126565b67ffffffffffffffff81111561316c5761316b611ca0565b5b6131768254612e77565b613181828285612fc7565b6000601f8311600181146131b0576000841561319e578287015490505b6131a88582613038565b86555061321b565b601f1984166131be87612ea8565b96506131c986612ea8565b60005b828110156131f1578489015482556001820191506001850194506020810190506131cc565b8683101561320e578489015461320a601f89168261301a565b8355505b6001600288020188555050505b5050505050505b565b7f4e487b7100000000000000000000000000000000000000000000000000000000600052603260045260246000fd5b7f4e487b7100000000000000000000000000000000000000000000000000000000600052601160045260246000fd5b600061328d82611f1d565b91507fffffffffffffffffffffffffffffffffffffffffffffffffffffffffffffffff82036132bf576132be613253565b5b600182019050919050565b7f4e6f2073652068612063756d706c69646f2061756e0000000000000000000000600082015250565b6000613300601583612dcb565b915061330b826132ca565b602082019050919050565b6000602082019050818103600083015261332f816132f3565b9050919050565b600061334182611f1d565b915061334c83611f1d565b925082820190508082111561336457613363613253565b5b92915050565b600080fd5b600080fd5b600080fd5b60008235600160e0038336030381126133955761339461336a565b5b80830191505092915050565b600080833560016020038436030381126133be576133bd61336a565b5b80840192508235915067ffffffffffffffff8211156133e0576133df61336f565b5b6020830192506001820236038313156133fc576133fb613374565b5b509250929050565b60006020828403121561341a57613419611c7b565b5b600061342884828501612d5a565b91505092915050565b6000808335600160200384360303811261344e5761344d61336a565b5b80840192508235915067ffffffffffffffff8211156134705761346f61336f565b5b60208301925060208202360383131561348c5761348b613374565b5b509250929050565b600067ffffffffffffffff8211156134af576134ae611ca0565b5b602082029050602081019050919050565b600080fd5b600080fd5b6000604082840312156134e0576134df6134c0565b5b6134ea6040611d00565b905060006134fa84828501611f3e565b600083015250602082013567ffffffffffffffff81111561351e5761351d6134c5565b5b61352a84828501611d9d565b60208301525092915050565b600061354961354484613494565b611d00565b9050808382526020820190506020840283018581111561356c5761356b6121d4565b5b835b818110156135b357803567ffffffffffffffff81111561359157613590611c85565b5b80860161359e89826134ca565b8552602085019450505060208101905061356e565b5050509392505050565b60006135ca368484613536565b905092915050565b60006135dd82611f1d565b91506135e883611f1d565b9250828203905081811115613600576135ff613253565b5b92915050565b600081905092915050565b600061361c826122a8565b6136268185613606565b93506136368185602086016122c4565b80840191505092915050565b600061364e8284613611565b915081905092915050565b7f4f776e61626c653a206e6577206f776e657220697320746865207a65726f206160008201527f6464726573730000000000000000000000000000000000000000000000000000602082015250565b60006136b5602683612dcb565b91506136c082613659565b604082019050919050565b600060208201905081810360008301526136e4816136a8565b9050919050565b60006136f682612d36565b915060ff820361370957613708613253565b5b600182019050919050565b7f4f776e61626c653a2063616c6c6572206973206e6f7420746865206f776e6572600082015250565b600061374a602083612dcb565b915061375582613714565b602082019050919050565b600060208201905081810360008301526137798161373d565b905091905056fea2646970667358221220bf75000f1f5716e8b0d83b9ab93d1a4beff36b9614a0f4a09e4cb9e814195d9564736f6c63430008120033",
  "linkReferences": {},
  "deployedLinkReferences": {}
}