{
  "_format": "hh-sol-artifact-1",
  "contractName": "MediBoomer",
  "sourceName": "contracts/MediBoomer.sol",
  "abi": [
    {
      "inputs": [
        {
          "internalType": "uint256",
          "name": "updateInterval",
          "type": "uint256"
        }
      ],
      "stateMutability": "nonpayable",
      "type": "constructor"
    },
    {
      "anonymous": false,
      "inputs": [
        {
          "indexed": true,
          "internalType": "address",
          "name": "previousOwner",
          "type": "address"
        },
        {
          "indexed": true,
          "internalType": "address",
          "name": "newOwner",
          "type": "address"
        }
      ],
      "name": "OwnershipTransferred",
      "type": "event"
    },
    {
      "anonymous": false,
      "inputs": [
        {
          "indexed": true,
          "internalType": "bytes32",
          "name": "role",
          "type": "bytes32"
        },
        {
          "indexed": true,
          "internalType": "bytes32",
          "name": "previousAdminRole",
          "type": "bytes32"
        },
        {
          "indexed": true,
          "internalType": "bytes32",
          "name": "newAdminRole",
          "type": "bytes32"
        }
      ],
      "name": "RoleAdminChanged",
      "type": "event"
    },
    {
      "anonymous": false,
      "inputs": [
        {
          "indexed": true,
          "internalType": "bytes32",
          "name": "role",
          "type": "bytes32"
        },
        {
          "indexed": true,
          "internalType": "address",
          "name": "account",
          "type": "address"
        },
        {
          "indexed": true,
          "internalType": "address",
          "name": "sender",
          "type": "address"
        }
      ],
      "name": "RoleGranted",
      "type": "event"
    },
    {
      "anonymous": false,
      "inputs": [
        {
          "indexed": true,
          "internalType": "bytes32",
          "name": "role",
          "type": "bytes32"
        },
        {
          "indexed": true,
          "internalType": "address",
          "name": "account",
          "type": "address"
        },
        {
          "indexed": true,
          "internalType": "address",
          "name": "sender",
          "type": "address"
        }
      ],
      "name": "RoleRevoked",
      "type": "event"
    },
    {
      "anonymous": false,
      "inputs": [
        {
          "indexed": true,
          "internalType": "address",
          "name": "userAddress",
          "type": "address"
        }
      ],
      "name": "WamAdded",
      "type": "event"
    },
    {
      "anonymous": false,
      "inputs": [
        {
          "indexed": true,
          "internalType": "address",
          "name": "userAddress",
          "type": "address"
        }
      ],
      "name": "WamsListed",
      "type": "event"
    },
    {
      "inputs": [],
      "name": "DEFAULT_ADMIN_ROLE",
      "outputs": [
        {
          "internalType": "bytes32",
          "name": "",
          "type": "bytes32"
        }
      ],
      "stateMutability": "view",
      "type": "function"
    },
    {
      "inputs": [],
      "name": "DOCTOR_ROLE",
      "outputs": [
        {
          "internalType": "bytes32",
          "name": "",
          "type": "bytes32"
        }
      ],
      "stateMutability": "view",
      "type": "function"
    },
    {
      "inputs": [],
      "name": "PATIENT_ROLE",
      "outputs": [
        {
          "internalType": "bytes32",
          "name": "",
          "type": "bytes32"
        }
      ],
      "stateMutability": "view",
      "type": "function"
    },
    {
      "inputs": [],
      "name": "PHARMACIST_ROLE",
      "outputs": [
        {
          "internalType": "bytes32",
          "name": "",
          "type": "bytes32"
        }
      ],
      "stateMutability": "view",
      "type": "function"
    },
    {
      "inputs": [
        {
          "internalType": "string",
          "name": "_time",
          "type": "string"
        }
      ],
      "name": "addIntakeTime",
      "outputs": [],
      "stateMutability": "nonpayable",
      "type": "function"
    },
    {
      "inputs": [
        {
          "internalType": "address",
          "name": "_patient",
          "type": "address"
        },
        {
          "components": [
            {
              "internalType": "uint256",
              "name": "id",
              "type": "uint256"
            },
            {
              "internalType": "uint256",
              "name": "medicineId",
              "type": "uint256"
            },
            {
              "internalType": "string",
              "name": "dose",
              "type": "string"
            },
            {
              "internalType": "bool",
              "name": "isDelivered",
              "type": "bool"
            },
            {
              "internalType": "uint256",
              "name": "timeDelivered",
              "type": "uint256"
            },
            {
              "internalType": "uint8",
              "name": "duration",
              "type": "uint8"
            },
            {
              "components": [
                {
                  "internalType": "uint256",
                  "name": "id",
                  "type": "uint256"
                },
                {
                  "internalType": "string",
                  "name": "time",
                  "type": "string"
                }
              ],
              "internalType": "struct MediBoomer.IntakeTime[]",
              "name": "intakeTimeList",
              "type": "tuple[]"
            }
          ],
          "internalType": "struct MediBoomer.Prescription[]",
          "name": "_prescriptionList",
          "type": "tuple[]"
        }
      ],
      "name": "addMedicalRecipe",
      "outputs": [],
      "stateMutability": "nonpayable",
      "type": "function"
    },
    {
      "inputs": [
        {
          "internalType": "string",
          "name": "_name",
          "type": "string"
        },
        {
          "internalType": "uint8",
          "name": "_wamId",
          "type": "uint8"
        }
      ],
      "name": "addMedicine",
      "outputs": [],
      "stateMutability": "nonpayable",
      "type": "function"
    },
    {
      "inputs": [
        {
          "internalType": "string",
          "name": "_id",
          "type": "string"
        },
        {
          "internalType": "string",
          "name": "_name",
          "type": "string"
        },
        {
          "internalType": "string",
          "name": "_email",
          "type": "string"
        },
        {
          "internalType": "address",
          "name": "_contractAddress",
          "type": "address"
        },
        {
          "internalType": "enum MediBoomer.UserRole",
          "name": "_userRole",
          "type": "uint8"
        }
      ],
      "name": "addUser",
      "outputs": [],
      "stateMutability": "nonpayable",
      "type": "function"
    },
    {
      "inputs": [
        {
          "internalType": "string",
          "name": "_name",
          "type": "string"
        }
      ],
      "name": "addWaysAdministeringMedicines",
      "outputs": [],
      "stateMutability": "nonpayable",
      "type": "function"
    },
    {
      "inputs": [
        {
          "internalType": "bytes",
          "name": "checkData",
          "type": "bytes"
        }
      ],
      "name": "checkUpkeep",
      "outputs": [
        {
          "internalType": "bool",
          "name": "upkeepNeeded",
          "type": "bool"
        },
        {
          "internalType": "bytes",
          "name": "performData",
          "type": "bytes"
        }
      ],
      "stateMutability": "view",
      "type": "function"
    },
    {
      "inputs": [],
      "name": "counter",
      "outputs": [
        {
          "internalType": "uint256",
          "name": "",
          "type": "uint256"
        }
      ],
      "stateMutability": "view",
      "type": "function"
    },
    {
      "inputs": [],
      "name": "getIntakeTimeList",
      "outputs": [
        {
          "components": [
            {
              "internalType": "uint256",
              "name": "id",
              "type": "uint256"
            },
            {
              "internalType": "string",
              "name": "time",
              "type": "string"
            }
          ],
          "internalType": "struct MediBoomer.IntakeTime[]",
          "name": "",
          "type": "tuple[]"
        }
      ],
      "stateMutability": "view",
      "type": "function"
    },
    {
      "inputs": [
        {
          "internalType": "address",
          "name": "_address",
          "type": "address"
        },
        {
          "internalType": "uint256",
          "name": "_medicalRecipeId",
          "type": "uint256"
        }
      ],
      "name": "getMedicalRecipe",
      "outputs": [
        {
          "components": [
            {
              "internalType": "uint256",
              "name": "id",
              "type": "uint256"
            },
            {
              "internalType": "address",
              "name": "patient",
              "type": "address"
            },
            {
              "internalType": "uint256[]",
              "name": "prescriptions",
              "type": "uint256[]"
            },
            {
              "internalType": "enum MediBoomer.MedicalRecipeStatus",
              "name": "status",
              "type": "uint8"
            }
          ],
          "internalType": "struct MediBoomer.MedicalRecipe",
          "name": "",
          "type": "tuple"
        }
      ],
      "stateMutability": "view",
      "type": "function"
    },
    {
      "inputs": [],
      "name": "getMedicineList",
      "outputs": [
        {
          "components": [
            {
              "internalType": "uint256",
              "name": "id",
              "type": "uint256"
            },
            {
              "internalType": "string",
              "name": "name",
              "type": "string"
            },
            {
              "internalType": "uint256",
              "name": "wamId",
              "type": "uint256"
            }
          ],
          "internalType": "struct MediBoomer.Medicine[]",
          "name": "",
          "type": "tuple[]"
        }
      ],
      "stateMutability": "view",
      "type": "function"
    },
    {
      "inputs": [],
      "name": "getPatientList",
      "outputs": [
        {
          "components": [
            {
              "internalType": "string",
              "name": "id",
              "type": "string"
            },
            {
              "internalType": "string",
              "name": "name",
              "type": "string"
            },
            {
              "internalType": "string",
              "name": "email",
              "type": "string"
            },
            {
              "internalType": "address",
              "name": "contractAddress",
              "type": "address"
            },
            {
              "internalType": "enum MediBoomer.UserRole",
              "name": "userRole",
              "type": "uint8"
            },
            {
              "internalType": "bool",
              "name": "isExists",
              "type": "bool"
            }
          ],
          "internalType": "struct MediBoomer.User[]",
          "name": "",
          "type": "tuple[]"
        }
      ],
      "stateMutability": "view",
      "type": "function"
    },
    {
      "inputs": [
        {
          "internalType": "address",
          "name": "_address",
          "type": "address"
        }
      ],
      "name": "getPatientMedicalRecipeList",
      "outputs": [
        {
          "components": [
            {
              "internalType": "uint256",
              "name": "id",
              "type": "uint256"
            },
            {
              "internalType": "address",
              "name": "patient",
              "type": "address"
            },
            {
              "internalType": "uint256[]",
              "name": "prescriptions",
              "type": "uint256[]"
            },
            {
              "internalType": "enum MediBoomer.MedicalRecipeStatus",
              "name": "status",
              "type": "uint8"
            }
          ],
          "internalType": "struct MediBoomer.MedicalRecipe[]",
          "name": "",
          "type": "tuple[]"
        }
      ],
      "stateMutability": "view",
      "type": "function"
    },
    {
      "inputs": [
        {
          "internalType": "bytes32",
          "name": "role",
          "type": "bytes32"
        }
      ],
      "name": "getRoleAdmin",
      "outputs": [
        {
          "internalType": "bytes32",
          "name": "",
          "type": "bytes32"
        }
      ],
      "stateMutability": "view",
      "type": "function"
    },
    {
      "inputs": [],
      "name": "getWamList",
      "outputs": [
        {
          "components": [
            {
              "internalType": "uint256",
              "name": "id",
              "type": "uint256"
            },
            {
              "internalType": "string",
              "name": "name",
              "type": "string"
            }
          ],
          "internalType": "struct MediBoomer.WaysAdministeringMedicines[]",
          "name": "",
          "type": "tuple[]"
        }
      ],
      "stateMutability": "view",
      "type": "function"
    },
    {
      "inputs": [
        {
          "internalType": "bytes32",
          "name": "role",
          "type": "bytes32"
        },
        {
          "internalType": "address",
          "name": "account",
          "type": "address"
        }
      ],
      "name": "grantRole",
      "outputs": [],
      "stateMutability": "nonpayable",
      "type": "function"
    },
    {
      "inputs": [
        {
          "internalType": "bytes32",
          "name": "role",
          "type": "bytes32"
        },
        {
          "internalType": "address",
          "name": "account",
          "type": "address"
        }
      ],
      "name": "hasRole",
      "outputs": [
        {
          "internalType": "bool",
          "name": "",
          "type": "bool"
        }
      ],
      "stateMutability": "view",
      "type": "function"
    },
    {
      "inputs": [],
      "name": "interval",
      "outputs": [
        {
          "internalType": "uint256",
          "name": "",
          "type": "uint256"
        }
      ],
      "stateMutability": "view",
      "type": "function"
    },
    {
      "inputs": [],
      "name": "lastTimeStamp",
      "outputs": [
        {
          "internalType": "uint256",
          "name": "",
          "type": "uint256"
        }
      ],
      "stateMutability": "view",
      "type": "function"
    },
    {
      "inputs": [],
      "name": "owner",
      "outputs": [
        {
          "internalType": "address",
          "name": "",
          "type": "address"
        }
      ],
      "stateMutability": "view",
      "type": "function"
    },
    {
      "inputs": [
        {
          "internalType": "bytes",
          "name": "",
          "type": "bytes"
        }
      ],
      "name": "performUpkeep",
      "outputs": [],
      "stateMutability": "nonpayable",
      "type": "function"
    },
    {
      "inputs": [],
      "name": "renounceOwnership",
      "outputs": [],
      "stateMutability": "nonpayable",
      "type": "function"
    },
    {
      "inputs": [
        {
          "internalType": "bytes32",
          "name": "role",
          "type": "bytes32"
        },
        {
          "internalType": "address",
          "name": "account",
          "type": "address"
        }
      ],
      "name": "renounceRole",
      "outputs": [],
      "stateMutability": "nonpayable",
      "type": "function"
    },
    {
      "inputs": [
        {
          "internalType": "bytes32",
          "name": "role",
          "type": "bytes32"
        },
        {
          "internalType": "address",
          "name": "account",
          "type": "address"
        }
      ],
      "name": "revokeRole",
      "outputs": [],
      "stateMutability": "nonpayable",
      "type": "function"
    },
    {
      "inputs": [
        {
          "internalType": "bytes4",
          "name": "interfaceId",
          "type": "bytes4"
        }
      ],
      "name": "supportsInterface",
      "outputs": [
        {
          "internalType": "bool",
          "name": "",
          "type": "bool"
        }
      ],
      "stateMutability": "view",
      "type": "function"
    },
    {
      "inputs": [
        {
          "internalType": "address",
          "name": "newOwner",
          "type": "address"
        }
      ],
      "name": "transferOwnership",
      "outputs": [],
      "stateMutability": "nonpayable",
      "type": "function"
    }
  ],
  "bytecode": "0x60a06040523480156200001157600080fd5b506040516200464c3803806200464c833981810160405281019062000037919062000308565b620000576200004b6200008a60201b60201c565b6200009260201b60201c565b6200006c6000801b336200015660201b60201c565b8060808181525050426008819055506000600781905550506200033a565b600033905090565b60008060009054906101000a900473ffffffffffffffffffffffffffffffffffffffff169050816000806101000a81548173ffffffffffffffffffffffffffffffffffffffff021916908373ffffffffffffffffffffffffffffffffffffffff1602179055508173ffffffffffffffffffffffffffffffffffffffff168173ffffffffffffffffffffffffffffffffffffffff167f8be0079c531659141344cd1fd0a4f28419497f9722a3daafe3b4186f6b6457e060405160405180910390a35050565b6200016882826200016c60201b60201c565b5050565b6200017e82826200025d60201b60201c565b6200025957600180600084815260200190815260200160002060000160008373ffffffffffffffffffffffffffffffffffffffff1673ffffffffffffffffffffffffffffffffffffffff16815260200190815260200160002060006101000a81548160ff021916908315150217905550620001fe6200008a60201b60201c565b73ffffffffffffffffffffffffffffffffffffffff168173ffffffffffffffffffffffffffffffffffffffff16837f2f8788117e7eff1d82e926ec794901d17c78024a50270940304540a733656f0d60405160405180910390a45b5050565b60006001600084815260200190815260200160002060000160008373ffffffffffffffffffffffffffffffffffffffff1673ffffffffffffffffffffffffffffffffffffffff16815260200190815260200160002060009054906101000a900460ff16905092915050565b600080fd5b6000819050919050565b620002e281620002cd565b8114620002ee57600080fd5b50565b6000815190506200030281620002d7565b92915050565b600060208284031215620003215762000320620002c8565b5b60006200033184828501620002f1565b91505092915050565b6080516142ef6200035d600039600081816112f6015261176801526142ef6000f3fe608060405234801561001057600080fd5b50600436106101cf5760003560e01c8063715018a611610104578063a3458072116100a2578063d547741f11610071578063d547741f1461050d578063f2fde38b14610529578063f56bb4fa14610545578063fec331f214610561576101cf565b8063a345807214610495578063ac5cb97d146104b3578063ba115db0146104d1578063c532d9fa146104ef576101cf565b80638da5cb5b116100de5780638da5cb5b1461040b57806391d1485414610429578063947a36fb14610459578063a217fddf14610477576101cf565b8063715018a6146103b3578063719f3520146103bd57806376b0d290146103db576101cf565b806336568abe11610171578063503b13541161014b578063503b13541461032a57806361bc221a14610348578063691ddadc146103665780636e04ff0d14610382576101cf565b806336568abe146102d45780633f3b3b27146102f05780634585e33b1461030e576101cf565b806323dc65e3116101ad57806323dc65e31461023c578063248a9ca31461026c5780632535f6a51461029c5780632f2ff15d146102b8576101cf565b806301ffc9a7146101d45780630357b31c146102045780631300914c14610220575b600080fd5b6101ee60048036038101906101e991906124bd565b61057f565b6040516101fb9190612505565b60405180910390f35b61021e60048036038101906102199190612666565b6105f9565b005b61023a60048036038101906102359190612732565b6106ba565b005b61025660048036038101906102519190612837565b610ab4565b6040516102639190612a1e565b60405180910390f35b61028660048036038101906102819190612a76565b610b3c565b6040516102939190612ab2565b60405180910390f35b6102b660048036038101906102b19190612666565b610b5c565b005b6102d260048036038101906102cd9190612acd565b610bda565b005b6102ee60048036038101906102e99190612acd565b610bfb565b005b6102f8610c7e565b6040516103059190612b1c565b60405180910390f35b61032860048036038101906103239190612b97565b610c84565b005b610332610d02565b60405161033f9190612e13565b60405180910390f35b610350611040565b60405161035d9190612b1c565b60405180910390f35b610380600480360381019061037b9190612e8b565b611046565b005b61039c60048036038101906103979190612f8c565b6112e0565b6040516103aa92919061302a565b60405180910390f35b6103bb61133c565b005b6103c5611350565b6040516103d29190613159565b60405180910390f35b6103f560048036038101906103f0919061317b565b611472565b60405161040291906132cd565b60405180910390f35b6104136116d2565b60405161042091906132fe565b60405180910390f35b610443600480360381019061043e9190612acd565b6116fb565b6040516104509190612505565b60405180910390f35b610461611766565b60405161046e9190612b1c565b60405180910390f35b61047f61178a565b60405161048c9190612ab2565b60405180910390f35b61049d611791565b6040516104aa919061342b565b60405180910390f35b6104bb611896565b6040516104c89190612ab2565b60405180910390f35b6104d96118ba565b6040516104e6919061354c565b60405180910390f35b6104f76119b5565b6040516105049190612ab2565b60405180910390f35b61052760048036038101906105229190612acd565b6119d9565b005b610543600480360381019061053e919061317b565b6119fa565b005b61055f600480360381019061055a91906135a7565b611a7d565b005b610569611b0f565b6040516105769190612ab2565b60405180910390f35b60007f7965db0b000000000000000000000000000000000000000000000000000000007bffffffffffffffffffffffffffffffffffffffffffffffffffffffff1916827bffffffffffffffffffffffffffffffffffffffffffffffffffffffff191614806105f257506105f182611b33565b5b9050919050565b60006106056002611b9d565b905060096040518060400160405280838152602001848152509080600181540180825580915050600190039060005260206000209060020201600090919091909150600082015181600001556020820151816001019081610666919061380f565b5050506106736002611bab565b3373ffffffffffffffffffffffffffffffffffffffff167fe103f0c9b4a3439dca4e673a3edca83247b0bec1284eba816801202b2e76424960405160405180910390a25050565b6040518060c001604052808681526020018581526020018481526020018373ffffffffffffffffffffffffffffffffffffffff16815260200182600281111561070657610705612944565b5b815260200160011515815250601060008473ffffffffffffffffffffffffffffffffffffffff1673ffffffffffffffffffffffffffffffffffffffff1681526020019081526020016000206000820151816000019081610766919061380f565b50602082015181600101908161077c919061380f565b506040820151816002019081610792919061380f565b5060608201518160030160006101000a81548173ffffffffffffffffffffffffffffffffffffffff021916908373ffffffffffffffffffffffffffffffffffffffff16021790555060808201518160030160146101000a81548160ff0219169083600281111561080557610804612944565b5b021790555060a08201518160030160156101000a81548160ff0219169083151502179055509050506000600281111561084157610840612944565b5b81600281111561085457610853612944565b5b03610884576108837f0af1dac7dea2fd7f7738119cec7df099dfad49aa9d2e7d17ba6b60f63ae7411f83610bda565b5b6001600281111561089857610897612944565b5b8160028111156108ab576108aa612944565b5b036108db576108da7fc2d498fa6734073871a6dde33c56174c52423804118e0d5b66171fad3494de6883610bda565b5b6002808111156108ee576108ed612944565b5b81600281111561090157610900612944565b5b03610aad576109307f72606200fac42b7dc86b75901d61ecfab2a4a1a6eded478b97a428094891abed83610bda565b600c601060008473ffffffffffffffffffffffffffffffffffffffff1673ffffffffffffffffffffffffffffffffffffffff1681526020019081526020016000209080600181540180825580915050600190039060005260206000209060040201600090919091909150600082018160000190816109ae91906138f7565b50600182018160010190816109c391906138f7565b50600282018160020190816109d891906138f7565b506003820160009054906101000a900473ffffffffffffffffffffffffffffffffffffffff168160030160006101000a81548173ffffffffffffffffffffffffffffffffffffffff021916908373ffffffffffffffffffffffffffffffffffffffff1602179055506003820160149054906101000a900460ff168160030160146101000a81548160ff02191690836002811115610a7857610a77612944565b5b02179055506003820160159054906101000a900460ff168160030160156101000a81548160ff02191690831515021790555050505b5050505050565b610abc6123f7565b6000610ac784611472565b90506000805b8251811015610b165784838281518110610aea57610ae96139df565b5b60200260200101516000015103610b0357809150610b16565b8080610b0e90613a3d565b915050610acd565b50818181518110610b2a57610b296139df565b5b60200260200101519250505092915050565b600060016000838152602001908152602001600020600101549050919050565b6000610b686004611b9d565b9050600b6040518060400160405280838152602001848152509080600181540180825580915050600190039060005260206000209060020201600090919091909150600082015181600001556020820151816001019081610bc9919061380f565b505050610bd66004611bab565b5050565b610be382610b3c565b610bec81611bc1565b610bf68383611bd5565b505050565b610c03611cb5565b73ffffffffffffffffffffffffffffffffffffffff168173ffffffffffffffffffffffffffffffffffffffff1614610c70576040517f08c379a0000000000000000000000000000000000000000000000000000000008152600401610c6790613b08565b60405180910390fd5b610c7a8282611cbd565b5050565b60085481565b6000610c9e604051806020016040528060008152506112e0565b50905080610ce1576040517f08c379a0000000000000000000000000000000000000000000000000000000008152600401610cd890613b74565b60405180910390fd5b426008819055506001600754610cf79190613b94565b600781905550505050565b6060610d2e7f0af1dac7dea2fd7f7738119cec7df099dfad49aa9d2e7d17ba6b60f63ae7411f336116fb565b80610d425750610d416000801b336116fb565b5b610d81576040517f08c379a0000000000000000000000000000000000000000000000000000000008152600401610d7890613c14565b60405180910390fd5b600c805480602002602001604051908101604052809291908181526020016000905b8282101561103757838290600052602060002090600402016040518060c0016040529081600082018054610dd690613632565b80601f0160208091040260200160405190810160405280929190818152602001828054610e0290613632565b8015610e4f5780601f10610e2457610100808354040283529160200191610e4f565b820191906000526020600020905b815481529060010190602001808311610e3257829003601f168201915b50505050508152602001600182018054610e6890613632565b80601f0160208091040260200160405190810160405280929190818152602001828054610e9490613632565b8015610ee15780601f10610eb657610100808354040283529160200191610ee1565b820191906000526020600020905b815481529060010190602001808311610ec457829003601f168201915b50505050508152602001600282018054610efa90613632565b80601f0160208091040260200160405190810160405280929190818152602001828054610f2690613632565b8015610f735780601f10610f4857610100808354040283529160200191610f73565b820191906000526020600020905b815481529060010190602001808311610f5657829003601f168201915b505050505081526020016003820160009054906101000a900473ffffffffffffffffffffffffffffffffffffffff1673ffffffffffffffffffffffffffffffffffffffff1673ffffffffffffffffffffffffffffffffffffffff1681526020016003820160149054906101000a900460ff166002811115610ff757610ff6612944565b5b600281111561100957611008612944565b5b81526020016003820160159054906101000a900460ff16151515158152505081526020019060010190610da3565b50505050905090565b60075481565b60006110526003611b9d565b90506000600e60008381526020019081526020016000209050818160000181905550848160010160006101000a81548173ffffffffffffffffffffffffffffffffffffffff021916908373ffffffffffffffffffffffffffffffffffffffff16021790555060008160030160006101000a81548160ff021916908360028111156110df576110de612944565b5b021790555060005b848490508110156112685760006110fe6006611b9d565b905061121f81878785818110611117576111166139df565b5b90506020028101906111299190613c43565b602001358888868181106111405761113f6139df565b5b90506020028101906111529190613c43565b80604001906111619190613c6b565b8080601f016020809104026020016040519081016040528093929190818152602001838380828437600081840152601f19601f820116905080830192505050505050508989878181106111b7576111b66139df565b5b90506020028101906111c99190613c43565b60a00160208101906111db9190613cce565b8a8a888181106111ee576111ed6139df565b5b90506020028101906112009190613c43565b8060c0019061120f9190613cfb565b9061121a9190613e87565b611d9f565b826002018190806001815401808255809150506001900390600052602060002001600090919091909150556112546006611bab565b50808061126090613a3d565b9150506110e7565b506112736003611bab565b600d60008673ffffffffffffffffffffffffffffffffffffffff1673ffffffffffffffffffffffffffffffffffffffff1681526020019081526020016000208290806001815401808255809150506001900390600052602060002001600090919091909150555050505050565b60006060600060075460098054905014905060007f0000000000000000000000000000000000000000000000000000000000000000600854426113239190613e9c565b1190508180156113305750805b93508492505050915091565b611344611ee5565b61134e6000611f63565b565b606061137960405180606001604052806023815260200161429760239139600980549050612027565b6009805480602002602001604051908101604052809291908181526020016000905b828210156114695783829060005260206000209060020201604051806040016040529081600082015481526020016001820180546113d890613632565b80601f016020809104026020016040519081016040528092919081815260200182805461140490613632565b80156114515780601f1061142657610100808354040283529160200191611451565b820191906000526020600020905b81548152906001019060200180831161143457829003601f168201915b5050505050815250508152602001906001019061139b565b50505050905090565b60606000600d60008473ffffffffffffffffffffffffffffffffffffffff1673ffffffffffffffffffffffffffffffffffffffff1681526020019081526020016000208054806020026020016040519081016040528092919081815260200182805480156114ff57602002820191906000526020600020905b8154815260200190600101908083116114eb575b505050505090506000815167ffffffffffffffff8111156115235761152261253b565b5b60405190808252806020026020018201604052801561155c57816020015b6115496123f7565b8152602001906001900390816115415790505b50905060005b82518110156116c757600e6000848381518110611582576115816139df565b5b60200260200101518152602001908152602001600020604051806080016040529081600082015481526020016001820160009054906101000a900473ffffffffffffffffffffffffffffffffffffffff1673ffffffffffffffffffffffffffffffffffffffff1673ffffffffffffffffffffffffffffffffffffffff1681526020016002820180548060200260200160405190810160405280929190818152602001828054801561165257602002820191906000526020600020905b81548152602001906001019080831161163e575b505050505081526020016003820160009054906101000a900460ff1660028111156116805761167f612944565b5b600281111561169257611691612944565b5b815250508282815181106116a9576116a86139df565b5b602002602001018190525080806116bf90613a3d565b915050611562565b508092505050919050565b60008060009054906101000a900473ffffffffffffffffffffffffffffffffffffffff16905090565b60006001600084815260200190815260200160002060000160008373ffffffffffffffffffffffffffffffffffffffff1673ffffffffffffffffffffffffffffffffffffffff16815260200190815260200160002060009054906101000a900460ff16905092915050565b7f000000000000000000000000000000000000000000000000000000000000000081565b6000801b81565b6060600a805480602002602001604051908101604052809291908181526020016000905b8282101561188d5783829060005260206000209060030201604051806060016040529081600082015481526020016001820180546117f290613632565b80601f016020809104026020016040519081016040528092919081815260200182805461181e90613632565b801561186b5780601f106118405761010080835404028352916020019161186b565b820191906000526020600020905b81548152906001019060200180831161184e57829003601f168201915b50505050508152602001600282015481525050815260200190600101906117b5565b50505050905090565b7f72606200fac42b7dc86b75901d61ecfab2a4a1a6eded478b97a428094891abed81565b6060600b805480602002602001604051908101604052809291908181526020016000905b828210156119ac57838290600052602060002090600202016040518060400160405290816000820154815260200160018201805461191b90613632565b80601f016020809104026020016040519081016040528092919081815260200182805461194790613632565b80156119945780601f1061196957610100808354040283529160200191611994565b820191906000526020600020905b81548152906001019060200180831161197757829003601f168201915b505050505081525050815260200190600101906118de565b50505050905090565b7fc2d498fa6734073871a6dde33c56174c52423804118e0d5b66171fad3494de6881565b6119e282610b3c565b6119eb81611bc1565b6119f58383611cbd565b505050565b611a02611ee5565b600073ffffffffffffffffffffffffffffffffffffffff168173ffffffffffffffffffffffffffffffffffffffff1603611a71576040517f08c379a0000000000000000000000000000000000000000000000000000000008152600401611a6890613f42565b60405180910390fd5b611a7a81611f63565b50565b6000611a896005611b9d565b9050600a60405180606001604052808381526020018581526020018460ff168152509080600181540180825580915050600190039060005260206000209060030201600090919091909150600082015181600001556020820151816001019081611af3919061380f565b50604082015181600201555050611b0a6005611bab565b505050565b7f0af1dac7dea2fd7f7738119cec7df099dfad49aa9d2e7d17ba6b60f63ae7411f81565b60007f01ffc9a7000000000000000000000000000000000000000000000000000000007bffffffffffffffffffffffffffffffffffffffffffffffffffffffff1916827bffffffffffffffffffffffffffffffffffffffffffffffffffffffff1916149050919050565b600081600001549050919050565b6001816000016000828254019250508190555050565b611bd281611bcd611cb5565b6120c3565b50565b611bdf82826116fb565b611cb157600180600084815260200190815260200160002060000160008373ffffffffffffffffffffffffffffffffffffffff1673ffffffffffffffffffffffffffffffffffffffff16815260200190815260200160002060006101000a81548160ff021916908315150217905550611c56611cb5565b73ffffffffffffffffffffffffffffffffffffffff168173ffffffffffffffffffffffffffffffffffffffff16837f2f8788117e7eff1d82e926ec794901d17c78024a50270940304540a733656f0d60405160405180910390a45b5050565b600033905090565b611cc782826116fb565b15611d9b5760006001600084815260200190815260200160002060000160008373ffffffffffffffffffffffffffffffffffffffff1673ffffffffffffffffffffffffffffffffffffffff16815260200190815260200160002060006101000a81548160ff021916908315150217905550611d40611cb5565b73ffffffffffffffffffffffffffffffffffffffff168173ffffffffffffffffffffffffffffffffffffffff16837ff6391f5c32d9c69d2a47ea670b442974b53935d1edc7fd64eb21e047a839171b60405160405180910390a45b5050565b6000600f6000878152602001908152602001600020905085816000018190555084816001018190555083816002019081611dd9919061380f565b5060008160030160006101000a81548160ff021916908315150217905550828160050160006101000a81548160ff021916908360ff16021790555060005b82518160ff161015611edc57816006016040518060400160405280858460ff1681518110611e4857611e476139df565b5b6020026020010151600001518152602001858460ff1681518110611e6f57611e6e6139df565b5b6020026020010151602001518152509080600181540180825580915050600190039060005260206000209060020201600090919091909150600082015181600001556020820151816001019081611ec6919061380f565b5050508080611ed490613f62565b915050611e17565b50505050505050565b611eed611cb5565b73ffffffffffffffffffffffffffffffffffffffff16611f0b6116d2565b73ffffffffffffffffffffffffffffffffffffffff1614611f61576040517f08c379a0000000000000000000000000000000000000000000000000000000008152600401611f5890613fd7565b60405180910390fd5b565b60008060009054906101000a900473ffffffffffffffffffffffffffffffffffffffff169050816000806101000a81548173ffffffffffffffffffffffffffffffffffffffff021916908373ffffffffffffffffffffffffffffffffffffffff1602179055508173ffffffffffffffffffffffffffffffffffffffff168173ffffffffffffffffffffffffffffffffffffffff167f8be0079c531659141344cd1fd0a4f28419497f9722a3daafe3b4186f6b6457e060405160405180910390a35050565b6120bf828260405160240161203d929190614030565b6040516020818303038152906040527fb60e72cc000000000000000000000000000000000000000000000000000000007bffffffffffffffffffffffffffffffffffffffffffffffffffffffff19166020820180517bffffffffffffffffffffffffffffffffffffffffffffffffffffffff8381831617835250505050612148565b5050565b6120cd82826116fb565b612144576120da81612162565b6120e88360001c602061218f565b6040516020016120f9929190614134565b6040516020818303038152906040526040517f08c379a000000000000000000000000000000000000000000000000000000000815260040161213b919061416e565b60405180910390fd5b5050565b61215f816121576123cb6123ec565b63ffffffff16565b50565b60606121888273ffffffffffffffffffffffffffffffffffffffff16601460ff1661218f565b9050919050565b6060600060028360026121a29190614190565b6121ac9190613b94565b67ffffffffffffffff8111156121c5576121c461253b565b5b6040519080825280601f01601f1916602001820160405280156121f75781602001600182028036833780820191505090505b5090507f30000000000000000000000000000000000000000000000000000000000000008160008151811061222f5761222e6139df565b5b60200101907effffffffffffffffffffffffffffffffffffffffffffffffffffffffffffff1916908160001a9053507f780000000000000000000000000000000000000000000000000000000000000081600181518110612293576122926139df565b5b60200101907effffffffffffffffffffffffffffffffffffffffffffffffffffffffffffff1916908160001a905350600060018460026122d39190614190565b6122dd9190613b94565b90505b600181111561237d577f3031323334353637383961626364656600000000000000000000000000000000600f86166010811061231f5761231e6139df565b5b1a60f81b828281518110612336576123356139df565b5b60200101907effffffffffffffffffffffffffffffffffffffffffffffffffffffffffffff1916908160001a905350600485901c945080612376906141d2565b90506122e0565b50600084146123c1576040517f08c379a00000000000000000000000000000000000000000000000000000000081526004016123b890614247565b60405180910390fd5b8091505092915050565b60006a636f6e736f6c652e6c6f679050600080835160208501845afa505050565b612447819050919050565b604051806080016040528060008152602001600073ffffffffffffffffffffffffffffffffffffffff168152602001606081526020016000600281111561244157612440612944565b5b81525090565b61244f614267565b565b6000604051905090565b600080fd5b600080fd5b60007fffffffff0000000000000000000000000000000000000000000000000000000082169050919050565b61249a81612465565b81146124a557600080fd5b50565b6000813590506124b781612491565b92915050565b6000602082840312156124d3576124d261245b565b5b60006124e1848285016124a8565b91505092915050565b60008115159050919050565b6124ff816124ea565b82525050565b600060208201905061251a60008301846124f6565b92915050565b600080fd5b600080fd5b6000601f19601f8301169050919050565b7f4e487b7100000000000000000000000000000000000000000000000000000000600052604160045260246000fd5b6125738261252a565b810181811067ffffffffffffffff821117156125925761259161253b565b5b80604052505050565b60006125a5612451565b90506125b1828261256a565b919050565b600067ffffffffffffffff8211156125d1576125d061253b565b5b6125da8261252a565b9050602081019050919050565b82818337600083830152505050565b6000612609612604846125b6565b61259b565b90508281526020810184848401111561262557612624612525565b5b6126308482856125e7565b509392505050565b600082601f83011261264d5761264c612520565b5b813561265d8482602086016125f6565b91505092915050565b60006020828403121561267c5761267b61245b565b5b600082013567ffffffffffffffff81111561269a57612699612460565b5b6126a684828501612638565b91505092915050565b600073ffffffffffffffffffffffffffffffffffffffff82169050919050565b60006126da826126af565b9050919050565b6126ea816126cf565b81146126f557600080fd5b50565b600081359050612707816126e1565b92915050565b6003811061271a57600080fd5b50565b60008135905061272c8161270d565b92915050565b600080600080600060a0868803121561274e5761274d61245b565b5b600086013567ffffffffffffffff81111561276c5761276b612460565b5b61277888828901612638565b955050602086013567ffffffffffffffff81111561279957612798612460565b5b6127a588828901612638565b945050604086013567ffffffffffffffff8111156127c6576127c5612460565b5b6127d288828901612638565b93505060606127e3888289016126f8565b92505060806127f48882890161271d565b9150509295509295909350565b6000819050919050565b61281481612801565b811461281f57600080fd5b50565b6000813590506128318161280b565b92915050565b6000806040838503121561284e5761284d61245b565b5b600061285c858286016126f8565b925050602061286d85828601612822565b9150509250929050565b61288081612801565b82525050565b61288f816126cf565b82525050565b600081519050919050565b600082825260208201905092915050565b6000819050602082019050919050565b60006128cd8383612877565b60208301905092915050565b6000602082019050919050565b60006128f182612895565b6128fb81856128a0565b9350612906836128b1565b8060005b8381101561293757815161291e88826128c1565b9750612929836128d9565b92505060018101905061290a565b5085935050505092915050565b7f4e487b7100000000000000000000000000000000000000000000000000000000600052602160045260246000fd5b6003811061298457612983612944565b5b50565b600081905061299582612973565b919050565b60006129a582612987565b9050919050565b6129b58161299a565b82525050565b60006080830160008301516129d36000860182612877565b5060208301516129e66020860182612886565b50604083015184820360408601526129fe82826128e6565b9150506060830151612a1360608601826129ac565b508091505092915050565b60006020820190508181036000830152612a3881846129bb565b905092915050565b6000819050919050565b612a5381612a40565b8114612a5e57600080fd5b50565b600081359050612a7081612a4a565b92915050565b600060208284031215612a8c57612a8b61245b565b5b6000612a9a84828501612a61565b91505092915050565b612aac81612a40565b82525050565b6000602082019050612ac76000830184612aa3565b92915050565b60008060408385031215612ae457612ae361245b565b5b6000612af285828601612a61565b9250506020612b03858286016126f8565b9150509250929050565b612b1681612801565b82525050565b6000602082019050612b316000830184612b0d565b92915050565b600080fd5b600080fd5b60008083601f840112612b5757612b56612520565b5b8235905067ffffffffffffffff811115612b7457612b73612b37565b5b602083019150836001820283011115612b9057612b8f612b3c565b5b9250929050565b60008060208385031215612bae57612bad61245b565b5b600083013567ffffffffffffffff811115612bcc57612bcb612460565b5b612bd885828601612b41565b92509250509250929050565b600081519050919050565b600082825260208201905092915050565b6000819050602082019050919050565b600081519050919050565b600082825260208201905092915050565b60005b83811015612c4a578082015181840152602081019050612c2f565b60008484015250505050565b6000612c6182612c10565b612c6b8185612c1b565b9350612c7b818560208601612c2c565b612c848161252a565b840191505092915050565b60038110612ca057612c9f612944565b5b50565b6000819050612cb182612c8f565b919050565b6000612cc182612ca3565b9050919050565b612cd181612cb6565b82525050565b612ce0816124ea565b82525050565b600060c0830160008301518482036000860152612d038282612c56565b91505060208301518482036020860152612d1d8282612c56565b91505060408301518482036040860152612d378282612c56565b9150506060830151612d4c6060860182612886565b506080830151612d5f6080860182612cc8565b5060a0830151612d7260a0860182612cd7565b508091505092915050565b6000612d898383612ce6565b905092915050565b6000602082019050919050565b6000612da982612be4565b612db38185612bef565b935083602082028501612dc585612c00565b8060005b85811015612e015784840389528151612de28582612d7d565b9450612ded83612d91565b925060208a01995050600181019050612dc9565b50829750879550505050505092915050565b60006020820190508181036000830152612e2d8184612d9e565b905092915050565b60008083601f840112612e4b57612e4a612520565b5b8235905067ffffffffffffffff811115612e6857612e67612b37565b5b602083019150836020820283011115612e8457612e83612b3c565b5b9250929050565b600080600060408486031215612ea457612ea361245b565b5b6000612eb2868287016126f8565b935050602084013567ffffffffffffffff811115612ed357612ed2612460565b5b612edf86828701612e35565b92509250509250925092565b600067ffffffffffffffff821115612f0657612f0561253b565b5b612f0f8261252a565b9050602081019050919050565b6000612f2f612f2a84612eeb565b61259b565b905082815260208101848484011115612f4b57612f4a612525565b5b612f568482856125e7565b509392505050565b600082601f830112612f7357612f72612520565b5b8135612f83848260208601612f1c565b91505092915050565b600060208284031215612fa257612fa161245b565b5b600082013567ffffffffffffffff811115612fc057612fbf612460565b5b612fcc84828501612f5e565b91505092915050565b600081519050919050565b600082825260208201905092915050565b6000612ffc82612fd5565b6130068185612fe0565b9350613016818560208601612c2c565b61301f8161252a565b840191505092915050565b600060408201905061303f60008301856124f6565b81810360208301526130518184612ff1565b90509392505050565b600081519050919050565b600082825260208201905092915050565b6000819050602082019050919050565b600060408301600083015161309e6000860182612877565b50602083015184820360208601526130b68282612c56565b9150508091505092915050565b60006130cf8383613086565b905092915050565b6000602082019050919050565b60006130ef8261305a565b6130f98185613065565b93508360208202850161310b85613076565b8060005b85811015613147578484038952815161312885826130c3565b9450613133836130d7565b925060208a0199505060018101905061310f565b50829750879550505050505092915050565b6000602082019050818103600083015261317381846130e4565b905092915050565b6000602082840312156131915761319061245b565b5b600061319f848285016126f8565b91505092915050565b600081519050919050565b600082825260208201905092915050565b6000819050602082019050919050565b60006080830160008301516131ec6000860182612877565b5060208301516131ff6020860182612886565b506040830151848203604086015261321782826128e6565b915050606083015161322c60608601826129ac565b508091505092915050565b600061324383836131d4565b905092915050565b6000602082019050919050565b6000613263826131a8565b61326d81856131b3565b93508360208202850161327f856131c4565b8060005b858110156132bb578484038952815161329c8582613237565b94506132a78361324b565b925060208a01995050600181019050613283565b50829750879550505050505092915050565b600060208201905081810360008301526132e78184613258565b905092915050565b6132f8816126cf565b82525050565b600060208201905061331360008301846132ef565b92915050565b600081519050919050565b600082825260208201905092915050565b6000819050602082019050919050565b600060608301600083015161335d6000860182612877565b50602083015184820360208601526133758282612c56565b915050604083015161338a6040860182612877565b508091505092915050565b60006133a18383613345565b905092915050565b6000602082019050919050565b60006133c182613319565b6133cb8185613324565b9350836020820285016133dd85613335565b8060005b8581101561341957848403895281516133fa8582613395565b9450613405836133a9565b925060208a019950506001810190506133e1565b50829750879550505050505092915050565b6000602082019050818103600083015261344581846133b6565b905092915050565b600081519050919050565b600082825260208201905092915050565b6000819050602082019050919050565b60006040830160008301516134916000860182612877565b50602083015184820360208601526134a98282612c56565b9150508091505092915050565b60006134c28383613479565b905092915050565b6000602082019050919050565b60006134e28261344d565b6134ec8185613458565b9350836020820285016134fe85613469565b8060005b8581101561353a578484038952815161351b85826134b6565b9450613526836134ca565b925060208a01995050600181019050613502565b50829750879550505050505092915050565b6000602082019050818103600083015261356681846134d7565b905092915050565b600060ff82169050919050565b6135848161356e565b811461358f57600080fd5b50565b6000813590506135a18161357b565b92915050565b600080604083850312156135be576135bd61245b565b5b600083013567ffffffffffffffff8111156135dc576135db612460565b5b6135e885828601612638565b92505060206135f985828601613592565b9150509250929050565b7f4e487b7100000000000000000000000000000000000000000000000000000000600052602260045260246000fd5b6000600282049050600182168061364a57607f821691505b60208210810361365d5761365c613603565b5b50919050565b60008190508160005260206000209050919050565b60006020601f8301049050919050565b600082821b905092915050565b6000600883026136c57fffffffffffffffffffffffffffffffffffffffffffffffffffffffffffffffff82613688565b6136cf8683613688565b95508019841693508086168417925050509392505050565b6000819050919050565b600061370c61370761370284612801565b6136e7565b612801565b9050919050565b6000819050919050565b613726836136f1565b61373a61373282613713565b848454613695565b825550505050565b600090565b61374f613742565b61375a81848461371d565b505050565b5b8181101561377e57613773600082613747565b600181019050613760565b5050565b601f8211156137c35761379481613663565b61379d84613678565b810160208510156137ac578190505b6137c06137b885613678565b83018261375f565b50505b505050565b600082821c905092915050565b60006137e6600019846008026137c8565b1980831691505092915050565b60006137ff83836137d5565b9150826002028217905092915050565b61381882612c10565b67ffffffffffffffff8111156138315761383061253b565b5b61383b8254613632565b613846828285613782565b600060209050601f8311600181146138795760008415613867578287015190505b61387185826137f3565b8655506138d9565b601f19841661388786613663565b60005b828110156138af5784890151825560018201915060208501945060208101905061388a565b868310156138cc57848901516138c8601f8916826137d5565b8355505b6001600288020188555050505b505050505050565b6000815490506138f081613632565b9050919050565b8181036139055750506139dd565b61390e826138e1565b67ffffffffffffffff8111156139275761392661253b565b5b6139318254613632565b61393c828285613782565b6000601f83116001811461396b5760008415613959578287015490505b61396385826137f3565b8655506139d6565b601f19841661397987613663565b965061398486613663565b60005b828110156139ac57848901548255600182019150600185019450602081019050613987565b868310156139c957848901546139c5601f8916826137d5565b8355505b6001600288020188555050505b5050505050505b565b7f4e487b7100000000000000000000000000000000000000000000000000000000600052603260045260246000fd5b7f4e487b7100000000000000000000000000000000000000000000000000000000600052601160045260246000fd5b6000613a4882612801565b91507fffffffffffffffffffffffffffffffffffffffffffffffffffffffffffffffff8203613a7a57613a79613a0e565b5b600182019050919050565b600082825260208201905092915050565b7f416363657373436f6e74726f6c3a2063616e206f6e6c792072656e6f756e636560008201527f20726f6c657320666f722073656c660000000000000000000000000000000000602082015250565b6000613af2602f83613a85565b9150613afd82613a96565b604082019050919050565b60006020820190508181036000830152613b2181613ae5565b9050919050565b7f4e6f2073652068612063756d706c69646f2061756e0000000000000000000000600082015250565b6000613b5e601583613a85565b9150613b6982613b28565b602082019050919050565b60006020820190508181036000830152613b8d81613b51565b9050919050565b6000613b9f82612801565b9150613baa83612801565b9250828201905080821115613bc257613bc1613a0e565b5b92915050565b7f55736572206973206e6f74206120646f63746f72000000000000000000000000600082015250565b6000613bfe601483613a85565b9150613c0982613bc8565b602082019050919050565b60006020820190508181036000830152613c2d81613bf1565b9050919050565b600080fd5b600080fd5b600080fd5b60008235600160e003833603038112613c5f57613c5e613c34565b5b80830191505092915050565b60008083356001602003843603038112613c8857613c87613c34565b5b80840192508235915067ffffffffffffffff821115613caa57613ca9613c39565b5b602083019250600182023603831315613cc657613cc5613c3e565b5b509250929050565b600060208284031215613ce457613ce361245b565b5b6000613cf284828501613592565b91505092915050565b60008083356001602003843603038112613d1857613d17613c34565b5b80840192508235915067ffffffffffffffff821115613d3a57613d39613c39565b5b602083019250602082023603831315613d5657613d55613c3e565b5b509250929050565b600067ffffffffffffffff821115613d7957613d7861253b565b5b602082029050602081019050919050565b600080fd5b600080fd5b600060408284031215613daa57613da9613d8a565b5b613db4604061259b565b90506000613dc484828501612822565b600083015250602082013567ffffffffffffffff811115613de857613de7613d8f565b5b613df484828501612638565b60208301525092915050565b6000613e13613e0e84613d5e565b61259b565b90508083825260208201905060208402830185811115613e3657613e35612b3c565b5b835b81811015613e7d57803567ffffffffffffffff811115613e5b57613e5a612520565b5b808601613e688982613d94565b85526020850194505050602081019050613e38565b5050509392505050565b6000613e94368484613e00565b905092915050565b6000613ea782612801565b9150613eb283612801565b9250828203905081811115613eca57613ec9613a0e565b5b92915050565b7f4f776e61626c653a206e6577206f776e657220697320746865207a65726f206160008201527f6464726573730000000000000000000000000000000000000000000000000000602082015250565b6000613f2c602683613a85565b9150613f3782613ed0565b604082019050919050565b60006020820190508181036000830152613f5b81613f1f565b9050919050565b6000613f6d8261356e565b915060ff8203613f8057613f7f613a0e565b5b600182019050919050565b7f4f776e61626c653a2063616c6c6572206973206e6f7420746865206f776e6572600082015250565b6000613fc1602083613a85565b9150613fcc82613f8b565b602082019050919050565b60006020820190508181036000830152613ff081613fb4565b9050919050565b600061400282612c10565b61400c8185613a85565b935061401c818560208601612c2c565b6140258161252a565b840191505092915050565b6000604082019050818103600083015261404a8185613ff7565b90506140596020830184612b0d565b9392505050565b600081905092915050565b7f416363657373436f6e74726f6c3a206163636f756e7420000000000000000000600082015250565b60006140a1601783614060565b91506140ac8261406b565b601782019050919050565b60006140c282612c10565b6140cc8185614060565b93506140dc818560208601612c2c565b80840191505092915050565b7f206973206d697373696e6720726f6c6520000000000000000000000000000000600082015250565b600061411e601183614060565b9150614129826140e8565b601182019050919050565b600061413f82614094565b915061414b82856140b7565b915061415682614111565b915061416282846140b7565b91508190509392505050565b600060208201905081810360008301526141888184613ff7565b905092915050565b600061419b82612801565b91506141a683612801565b92508282026141b481612801565b915082820484148315176141cb576141ca613a0e565b5b5092915050565b60006141dd82612801565b9150600082036141f0576141ef613a0e565b5b600182039050919050565b7f537472696e67733a20686578206c656e67746820696e73756666696369656e74600082015250565b6000614231602083613a85565b915061423c826141fb565b602082019050919050565b6000602082019050818103600083015261426081614224565b9050919050565b7f4e487b7100000000000000000000000000000000000000000000000000000000600052605160045260246000fdfe43616e746964616420646520656c656d656e746f7320656e2077616d4c697374205858a26469706673582212209090471204c8f087dae0d8309d7cf6c4c4b2fb9437f34e68784879ea5c70ad9364736f6c63430008120033",
  "linkReferences": {},
  "deployedLinkReferences": {}
}